:020000040800F2
:10000000A0040020DD0E0008E50E0008E70E000841
:10001000E90E0008EB0E0008ED0E000800000000DD
:10002000000000000000000000000000EF0E0008CB
:10003000F10E000800000000F30E0008F50E0008A5
:10004000F70E0008F70E0008F70E0008F70E00087C
:10005000F70E0008F70E0008F70E0008F70E00086C
:10006000F70E0008F70E0008F70E0008F70E00085C
:10007000F70E0008F70E0008F70E0008F70E00084C
:10008000F70E0008F70E0008F70E0008F70E00083C
:10009000F70E0008F70E0008F70E0008F70E00082C
:1000A000F70E0008F70E0008F70E0008F70E00081C
:1000B000C7060008F70E0008EF050008F70E000855
:1000C000F70E0008F70E0008F70E0008F70E0008FC
:1000D000F70E0008F70E0008F70E0008F70E0008EC
:1000E000F70E0008F70E0008F70E0008F70E0008DC
:1000F000F70E0008F70E0008F70E0008F70E0008CC
:10010000F70E0008F70E0008E9060008F70E0008D1
:10011000F70E0008F70E0008F70E0008F70E0008AB
:10012000F70E0008F70E0008F70E0008F70E00089B
:10013000DFF80CD002F024FD00480047AD030008B2
:10014000A00400209248006820B100209049086077
:100150009049086090480078012809D18C490860CE
:100160008E4908608E49087000208B4908707047DE
:100170008A48006818B9012088490860F7E787486D
:10018000006808287BD885480068002877D00020C0
:10019000834908707F480068032800D2E7E77D485C
:1001A00000680C2819D37B480068142816D2012057
:1001B0007C49086009E00021784802680068401C1A
:1001C000764B1860784840F822107648016800683D
:1001D000401E744A10600029EDD1BCE06D480068F3
:1001E0001C2816D202206F49086009E000226B48E3
:1001F00001680068401C694B18606B4840F821207A
:10020000684801680068401E664A10600029EDD108
:10021000A1E060480068242816D2032061490860E4
:1002200009E000225D4801680068401C5B4B1860D3
:100230005D4840F821205B4801680068401E594A2B
:1002400010600029EDD186E0524800682C2817D2B2
:1002500004205449086009E0002150480268006801
:10026000401C4E4B1860504840F822104D48016821
:100270000068401E4B4A10600029EDD16BE074E02D
:1002800044480068342816D205204649086009E031
:100290000022424801680068401C404B18604248F8
:1002A00040F821203F4801680068401E3D4A106028
:1002B0000029EDD14FE0374800683C2816D20620CF
:1002C0003849086009E00021344802680068401C91
:1002D000324B1860344840F82210324801680068F8
:1002E000401E304A10600029EDD134E029480068F2
:1002F000442816D207202B49086009E0002227482D
:1003000001680068401C254B1860274840F82120F0
:10031000244801680068401E224A10600029EDD17F
:1003200019E01C4800684C2815D208201D490860B7
:1003300009E00022194801680068401C174B18604A
:10034000194840F82120174801680068401E154AE6
:1003500010600029EDD10121104802680068401C9E
:100360000E4B1860104840F822100C4800686328B3
:1003700002D100200949086008480068092805D30F
:1003800063200649086001200549087000BFEEE6B9
:1003900008000020100000201C00002000000020A9
:1003A00014000020040000205000002008B54FF089
:1003B000000A4FF0630B4FF4806000F091FE00F0F4
:1003C0000EFE00F02DFA00F02FFB00F002FD00F011
:1003D00087F87CE03E480078002859D000203D494D
:1003E000086008200090012421E0601E02F0E9F975
:1003F00007463A460B4600204FF0804102F0E4FCED
:10040000054602F0EFF9344951F82410314A1268D8
:1004100001FB00202F4908602F4951F82420009942
:100420004B1E88B20221009300F08EFC641C082C45
:10043000DBDD2A480068642806D228480068824527
:1004400002D22648D0F800A02448006801280AD922
:1004500022480068642806D220480068834502D9F3
:100460001E48D0F800B05A460021084600F06CFC47
:1004700052460021062000F067FC184800686428F6
:100480001DD2164806210268002000F05DFC16E02F
:10049000B9F1000F13D100F0C2FA00200D49086035
:1004A00008240AE000200C4941F8240051F82420D7
:1004B000A0B2022100F048FC641E002CF2DC09F11D
:1004C000010042F2107190FBF1F201FB120981E789
:1004D0001400002018000020500000201000002010
:1004E00008B50121082001F085F94FF40060ADF84E
:1004F000000010208DF8030003208DF802006946EB
:100500000B4800F0BBFE4FF40061094800F063FFA8
:100510000121102001F06EF91020ADF800006946AD
:10052000044800F0ABFE1021024800F056FF08BD61
:10053000000C01400010014000B585B001210420ED
:1005400001F065F90121082001F054F98020ADF88F
:100550000C0004208DF80F0003208DF80E0003A975
:100560005C4800F08BFE5C4801F0A8F90120ADF872
:1005700004000020ADF80000ADF806001020ADF832
:1005800002006946544801F06DFA6421524802F0B5
:1005900059F80121504801F0C1FE60214E4801F098
:1005A000F7FD07214C4802F03BF864214A4802F06D
:1005B0004FF80121484801F0B1FD0421464802F0FE
:1005C00073F801220421444801F0C3FD1E208DF878
:1005D000100002208DF8110000208DF8120001207B
:1005E0008DF8130004A800F080FD05B000BD10B523
:1005F0004FF0804002F049F838490860084600682A
:10060000962804D936480078401C3549087034488B
:10061000007802281ADB0020314908700120314996
:1006200008700021800702F00DF800BF4FF08040F5
:1006300002F02BF8BE28F9DC00214FF0804002F0D8
:1006400001F80421244802F02FF810BD00214FF0DA
:10065000804001F0F7FF2248007808B9FFF772FDEB
:1006600004211D4802F020F800BFEEE71FB501216C
:10067000084601F0CCF84720ADF804004FF6FF70B3
:10068000ADF808000020ADF80A00ADF8060001A999
:100690004FF0804001F0E6F901221146900701F089
:1006A00058FD1C208DF8000001208DF801008DF808
:1006B00002008DF80300684600F017FD012188074D
:1006C00001F02CFD1FBD10B50121880702F000F8D4
:1006D00010BD0000000C0140000800401000002088
:1006E0001D0000201C00002010B54FF0804001F0DC
:1006F000CCFF4549086008460068962804D943485D
:100700000078401C414908704048007802281ADBF4
:1007100000203E49087001203D49087000218007F3
:1007200001F090FF00BF4FF0804001F0AEFFBE2807
:10073000F9DC00214FF0804001F084FF04213548AE
:1007400001F0B2FF10BD00214FF0804001F07AFFB0
:100750002E48007808B9FFF7F5FC03212E4801F078
:10076000B7FF00BFEEE700B589B00121082001F016
:100770004EF80121042001F03DF80120ADF81400ED
:1007800028208DF8170005A9244800F077FD0121E5
:10079000224800F020FE4720ADF808004FF6FF7019
:1007A000ADF80C000020ADF80E00ADF80A0002A96B
:1007B000194801F057F90020ADF81800ADF81A00FB
:1007C0000120ADF81C000020ADF81E00ADF820009F
:1007D00006A9114801F0D9FB32208DF80400012050
:1007E0008DF805008DF806008DF8070001A800F0CF
:1007F0007CFC01220321084801F0ABFC01210648E2
:1008000001F08CFC09B000BD100000201E0000208B
:100810001C00002000080040000C004000080140BF
:1008200010B56FF0040000F0AAFC354800683549A7
:10083000B0FBF1F0344908700846007800EB400145
:10084000C1EBC0104FF6FF7101EAC0002F490880CC
:1008500010BD01462C4A12784A434FF0E0235A61FA
:1008600000229A611A46126942F001021A6100BF21
:100870004FF0E022106900F001021AB100F480325A
:10088000002AF5D04FF0E022126922F001024FF069
:10089000E0231A6100229A61704701461B4A1288C0
:1008A0004A434FF0E0235A6100229A611A461269C6
:1008B00042F001021A6100BF4FF0E022106900F01F
:1008C00001021AB100F48032002AF5D04FF0E02284
:1008D000126922F001024FF0E0231A6100229A61AE
:1008E000704730B50446002504E06420FFF7D5FFCB
:1008F000681CC5B204EB8400B5EB400FF5DB30BDDE
:100900002400002000127A00200000202200002095
:1009100070B505468021F74800F05DFD00241BE01E
:1009200005FA04F000F0800028B14FF40041F248CD
:1009300000F051FD04E04FF40041EF4800F04DFDA0
:100940004FF40051EC4800F048FD4FF40051EA48E4
:1009500000F041FD601CC4B2082CE1DB70BD70B535
:1009600005468021E34800F038FD00241BE005FA2D
:1009700004F000F0800028B14FF40041DE4800F0A0
:100980002AFD04E04FF40041DB4800F026FD4FF45F
:100990000051D94800F021FD4FF40051D64800F035
:1009A0001AFD601CC4B2082CE1DB70BD70B50446B2
:1009B0000D4605F1B001C8B2FFF7D1FF102141EAA1
:1009C0001410FFF7CCFF04F00F0141F00100FFF716
:1009D000C6FF70BD70B506464021C64800F0FDFC5C
:1009E000002415E004F1B001C8B2FFF7B8FF012000
:1009F000FFF7B5FF1020FFF7B2FF002504E03046F7
:100A0000FFF786FF681CC5B2802DF8DB601CC4B2FE
:100A1000082CE7DB4021B74800F0DDFC70BD10B5C5
:100A20000020FFF7D7FF10BD08B50121082000F016
:100A3000E1FE4FF42040ADF8000010208DF80300D7
:100A400003208DF802006946AB4800F017FC4FF414
:100A50002041A94800F0BFFC0121102000F0CAFE8F
:100A6000C020ADF8000010208DF8030003208DF8A1
:100A7000020069469F4800F001FCC0219D4800F03B
:100A8000AAFC4FF4FA70FFF708FF4021994800F0E4
:100A9000A4FCAE20FFF763FFAE20FFF760FF00204D
:100AA000FFF75DFF1020FFF75AFF4020FFF757FFC9
:100AB0008120FFF754FFCF20FFF751FFA120FFF760
:100AC0004EFFC820FFF74BFFA620FFF748FFA820E6
:100AD000FFF745FF3F20FFF742FFD320FFF73FFF1F
:100AE0000020FFF73CFFD520FFF739FF8020FFF7FC
:100AF00036FFD920FFF733FFF120FFF730FFDA2070
:100B0000FFF72DFF1220FFF72AFFDB20FFF727FF5B
:100B10004020FFF724FF2020FFF721FF0220FFF7EE
:100B20001EFF8D20FFF71BFF1420FFF718FFA420E6
:100B3000FFF715FFA620FFF712FFAF20FFF70FFF0B
:100B40000020FFF747FF00210846FFF72FFF402155
:100B5000684800F040FC08BD2DE9F04180460F4692
:100B600015461E4639464046FFF720FF002404E0A4
:100B7000305DFFF7CDFE601CC4B2AC42F8DB781CE0
:100B8000C1B24046FFF712FF2C4604E0305DFFF78C
:100B9000BFFE601CC4B2B4EB450FF7DBBDE8F081CB
:100BA0002DE9F04788B004460D4690464021514853
:100BB00000F013FC802C01DA402D03DB002008B08C
:100BC000BDE8F08798F8006098F80190802E1BDD52
:100BD000B9F1800F18DD04F11000802803DC05F165
:100BE0001000402801DD0020E9E7A9F1A100A6F1ED
:100BF000A101C1EB011202EB411100EB4100002108
:100C000001EB401A102710E004F10800802803DCF3
:100C100005F11000402801DD0020D0E7A6F12000FA
:100C20004FF4014101EB001A08277A00514668464B
:100C300000F024F96B463A4629462046FFF78CFF20
:100C400040212C4800F0C7FB0120B8E72DE9F04116
:100C500005460F461646E806050E304601F03BFDF8
:100C600000F0FF0800240AE0321905EBC401C8B205
:100C70003946FFF795FF601CC4B2601CC4B24445FE
:100C8000F2DBBDE8F0812DE9F04105460F4616463E
:100C9000E806050E304601F01EFD00F0FF080024B6
:100CA00008E0321905EBC401C8B23946FFF778FFF6
:100CB000601CC4B24445F4DBBDE8F0812DE9F05F6F
:100CC00006460F4690461C46DDF828A04FF0000B64
:100CD0004021084800F081FBE11704EB5171C91075
:100CE000A4EBC10151B92046E11704EB5171C1F3E6
:100CF000C7050AE000100140000C01402046E11742
:100D000004EB5171C910491CCDB23D4614E029468F
:100D10003046FFF74BFEB1460AE059460BF1010B96
:100D20001AF80100FFF7F4FD09F1010000F0FF09D6
:100D3000C145F2DB681CC5B2A542E8DB402116487C
:100D400000F049FBBDE8F09F2DE9FE4307468846C9
:100D500015462E46002400E0641C0A20B6FBF0F085
:100D6000061EF9D12E46641C0AE00A20B6FBF0F1FB
:100D700000FB116030300DF804000A20B6FBF0F6DD
:100D8000201EA4F10104F0D108F0FF01F8B26A4678
:100D9000FFF779FFBDE8FE830010014010B504465F
:100DA00022464FF480514B4800F019FB10BD10B59E
:100DB000044622464FF40041464800F010FB10BDA7
:100DC00010B5044622464FF40051424800F007FB9C
:100DD00010BD08B54FF48050ADF8000002208DF82A
:100DE000020010208DF8030069463A4800F046FAE8
:100DF0004FF48040ADF8000048208DF803006946AC
:100E0000344800F03BFA0120FFF7C8FF0120FFF74C
:100E1000D7FF08BD70B5044600250120FFF7D0FFBD
:100E2000002627E00020FFF7CBFF0220FFF711FD8F
:100E300004F08000802803D10120FFF7B8FF02E012
:100E40000020FFF7B4FF6006040E0220FFF701FD4B
:100E50000120FFF7B5FF0220FFF7FBFC6806050E37
:100E60004FF480411B4800F09CFA08B1681CC5B2E1
:100E7000701CC6B2082ED5DB284670BD70B505467D
:100E80000C4616464021144800F0A5FA0020FFF752
:100E900085FF0320FFF7BEFFC4F30740FFF7BAFF4B
:100EA000C4F30720FFF7B6FFE0B2FFF7B3FF04E09B
:100EB000A520FFF7AFFF28706D1C301EA6F10101C1
:100EC0008EB2F5D10120FFF769FF4021024800F002
:100ED00084FA70BD000C01400010014006488047B4
:100EE00006480047FEE7FEE7FEE7FEE7FEE7FEE70F
:100EF000FEE7FEE7FEE7FEE7DF0F0008310100082E
:100F00000CB50020019000906C48006840F48030DF
:100F10006A49086000BF6948006800F4003000902A
:100F20000198401C0190009818B90198B0F5A06F85
:100F3000F1D16248006800F4003010B10120009047
:100F400001E0002000900098012843D15C4800682F
:100F500040F010005A4908600846006820F003007D
:100F600008600846006840F0020008605348406886
:100F7000524948600846406848600846406840F466
:100F8000806048600846406820F47C10486008464D
:100F9000406840F4E81048600846006840F08070FF
:100FA000086000BF4548006800F000700028F9D0D4
:100FB0004248406820F003004049486008464068C5
:100FC00040F00200486000BF3C48406800F00C0060
:100FD0000828F9D10CBD10B5FFF792FF10BD10B570
:100FE0003648006840F0010034490860084640680F
:100FF0003449084031494860084600683249084091
:101000002E4908600846006820F4802008600846E1
:10101000406820F4FE0048604FF41F008860FFF72E
:10102000DAFF4FF000602949086010BD10B50021BB
:1010300000200022214B5B6803F00C0121B1042940
:1010400006D0082928D107E0214B224C236027E055
:101050001F4B204C236023E0184B5B6803F4701097
:10106000164B5B6803F48032022303EB904022B9F5
:10107000194B4343174C23600DE0104B5B6803F49E
:10108000003323B1144B4343124C236003E0104B55
:101090004343104C236003E00D4B0E4C236000BF14
:1010A00000BF064B5B68C3F303130C4CE15C094BB8
:1010B0001B68CB40074C236010BD000000100240AD
:1010C000002002400000FFF8FFFFF6FE08ED00E000
:1010D00000127A002400002000093D0028000020B2
:1010E00031490143314A1160704770B50021002336
:1010F0000F22C47804B32D4C246804F4E064C4F5D2
:10110000E064210AC1F10403CA40447804FA03F1FF
:101110008478144021430901254C0678A1550478B0
:1011200004F01F050124AC4005786D11AD0005F1F8
:10113000E025C5F8004109E0047804F01F0501240A
:10114000AC401C4D0678761145F8264070BD1A4A11
:101150000A400243154B1B1F1A60704739B1134AEE
:10116000121D12680243114B1B1D1A6006E00F4A44
:10117000121D126882430D4B1B1D1A607047042814
:1011800008D14FF0E021096941F004014FF0E0225D
:10119000116107E04FF0E021096921F004014FF0EF
:1011A000E0221161704700000000FA050CED00E03C
:1011B00000E400E080E100E080FFFF1F10B504467E
:1011C000CC48844208D10121042000F02DFB0021ED
:1011D000042000F029FB46E0C748844208D10121E1
:1011E000082000F021FB0021082000F01DFB3AE060
:1011F000C248844208D10121102000F015FB0021D3
:10120000102000F011FB2EE0BD48844208D10121DE
:10121000202000F009FB0021202000F005FB22E047
:10122000B848844208D10121402000F0FDFA002195
:10123000402000F0F9FA16E0B348844208D10121B9
:10124000802000F0F1FA0021802000F0EDFA0AE0A1
:10125000AE48844207D10121801500F0E5FA002153
:10126000A01500F0E1FA10BD10B50121084600F00C
:10127000DBFA0021012000F0D7FA10BD2DE9F04182
:10128000024600250026002000230024002791F8B4
:1012900003C00CF00F0591F803C00CF0100CBCF16A
:1012A000000F03D091F802C04CEA050591F800C088
:1012B000BCF1000F31D0146800202BE04FF0010C7E
:1012C0000CFA00F3B1F800C00CEA03069E4220D1EC
:1012D00083004FF00F0C0CFA03F7BC4305FA03FC34
:1012E0004CEA040491F803C0BCF1280F06D14FF07A
:1012F000010C0CFA00FCC2F814C00AE091F803C01B
:10130000BCF1480F05D14FF0010C0CFA00FCC2F8FB
:1013100010C0401C0828D1D31460B1F800C0BCF143
:10132000FF0F34DD546800202EE000F1080C4FF070
:10133000010808FA0CF3B1F800C00CEA03069E425B
:1013400021D183004FF00F0C0CFA03F7BC4305FAD0
:1013500003FC4CEA040491F803C0BCF1280F05D14A
:1013600000F1080C08FA0CF8C2F8148091F803C0D8
:10137000BCF1480F07D100F1080C4FF0010808FA42
:101380000CF8C2F81080401C0828CED35460BDE889
:10139000F0814FF6FF710180022181700421C1703C
:1013A00070470246002093680B400BB1012000E01B
:1013B000002070470146886880B2704702460020CE
:1013C000D3680B400BB1012000E0002070470146BC
:1013D000C86880B2704701617047416170470AB1C7
:1013E000016100E041617047C16070474FF4803295
:1013F0000A43826181618261826982697047024623
:101400000020434B18684FF68073184040EA0210E2
:1014100008433F4B186070473E49C8617047F0B5BC
:101420000A46002300240021002500F00046B6F102
:10143000004F02D1364EF16901E0354E7168C0F3BC
:10144000034583B200F44016B6F5401F08D121F0E1
:1014500070612F4E766826F070662D4F7E6012E028
:1014600000F48016B6F5801F06D1032606FA05F4AF
:10147000A14341F0706106E0460D360103FA06F61D
:10148000B14341F0706122B1460D360103FA06F610
:10149000314300F00046B6F1004F02D11C4EF1611D
:1014A00001E01B4E7160F0BD30B500228B071C0FB0
:1014B0000F2303FA04F2164B08338C1053F8243030
:1014C0009343134C08348D1044F8253023468C1078
:1014D00053F824308C07240F00FA04F423430C4CF7
:1014E00008348D1044F8253030BD0A49DC310860DD
:1014F0007047000000080140000C0140001001404E
:101500000014014000180140001C0140002001406F
:101510000000014000002042DF48006840F0010068
:10152000DD49086008464068DC490840DA494860FF
:1015300008460068DA490840D7490860084600684C
:1015400020F4802008600846406820F4FE004860CF
:101550004FF41F0088607047CF49096821F480313B
:10156000CD4A11601146096821F480211160B0F55F
:10157000803F03D0B0F5802F0ED106E0C649096840
:1015800041F48031C44A116007E0C349096841F45D
:10159000A021C14A116000E000BF00BF704710B534
:1015A00001460022002300204A11012A02D1BA4C30
:1015B000236806E0022A02D1B74C236A01E0B64C48
:1015C000636A01F01F02012494401C400CB1012009
:1015D00000E0002010BD38B5002000900024002558
:1015E00000BF3120FFF7DBFF05460098401C00904C
:1015F0000098B0F5A06F01D0002DF2D03120FFF798
:10160000CEFF08B1012400E00024204638BD014689
:101610000020A14A106820F0F80040EAC1001060E4
:101620007047A04908607047024600209A4B5868EE
:1016300020F47C1042EA01031843974B586070472E
:1016400098490866704701460020934A506820F088
:1016500003000843506070478F48406800F00C005A
:101660007047014600208C4A506820F0F000084383
:101670005060704701460020874A506820F4E060BF
:1016800008435060704701460020834A506820F4A8
:10169000605040EAC1005060704729B17E4A527ADA
:1016A00002437D4B5A7204E07B4A527A82437A4B62
:1016B0005A7270477B49D831086070470146002054
:1016C000754A506820F4404008435060704700213C
:1016D000714A20321170704A82F82010012802D01D
:1016E00004280AD104E001216B4A2032117005E080
:1016F0000521694A2032117000E000BF00BF704729
:101700006949086070476449096A0143624A116285
:101710007047654944390860704730B500210022A0
:10172000002400235C4D6D6805F00C0121B10429F3
:1017300005D0082923D105E05C4D056022E05B4D12
:1017400005601FE0544D6D6805F47012524D6D68D0
:1017500005F48034022505EB92421CB9544D5543E3
:1017600005600BE04C4D6D6805F400351DB1504D22
:101770005543056002E04D4D5543056002E04B4D79
:10178000056000BF00BF444D6D6805F0F001090918
:10179000484D6B5C0568DD4045603F4D6D6805F464
:1017A000E061090A434D6B5C4568DD4085603A4D58
:1017B0006D6805F46051C90A3E4D6B5C4568DD40BB
:1017C000C560354D6D6805F44041890B3A4D6B5C41
:1017D000C568B5FBF3F5056130BD29B12E4A5269E4
:1017E00002432D4B5A6104E02B4A526982432A4B33
:1017F0005A61704729B1284A92690243264B9A617F
:1018000004E0254A92698243234B9A61704729B1CB
:10181000214AD2690243204BDA6104E01E4AD269B0
:1018200082431D4BDA61704729B11B4AD2680243DB
:10183000194BDA6004E0184AD2688243164BDA602A
:10184000704729B1144A12690243134B1A6104E02C
:10185000114A12698243104B1A617047124940398C
:10186000086070470F49C86470470B49C8717047DA
:101870000948406A40F08070074948627047014655
:101880000020054A92680A400AB1012000E00020C9
:101890007047014988727047001002400000FFF84D
:1018A000FFFFF6FE000042428004424200127A002E
:1018B00000093D00380000204800002010B5044613
:1018C000FE48844208D10121C014FFF7ADFF00217A
:1018D000E014FFF7A9FFC4E0B4F1804F08D1012163
:1018E0000846FFF7AEFF00210120FFF7AAFFB8E08E
:1018F000F348844208D101210220FFF7A2FF002112
:101900000220FFF79EFFACE0EE48844208D101219F
:101910000420FFF796FF00210420FFF792FFA0E0CC
:10192000E948844208D101210820FFF78AFF0021FD
:101930000820FFF786FF94E0E448844208D10121A3
:101940001020FFF77EFF00211020FFF77AFF88E0CC
:10195000DF48844208D101212020FFF772FF0021D7
:101960002020FFF76EFF7CE0DA48844208D1012195
:101970004014FFF759FF00216014FFF755FF70E096
:10198000D548844209D10121C804FFF74DFF002149
:101990004FF40020FFF748FF63E0D048844209D1AC
:1019A00001210805FFF740FF00214FF48010FFF7E9
:1019B0003BFF56E0CA48844209D101214805FFF7A0
:1019C00033FF00214FF40010FFF72EFF49E0C54818
:1019D000844208D101214020FFF733FF002140203D
:1019E000FFF72FFF3DE0C048844208D1012180204D
:1019F000FFF727FF00218020FFF723FF31E0BB48DE
:101A0000844208D101218015FFF71BFF0021A0159A
:101A1000FFF717FF25E0B648844209D101210804E9
:101A2000FFF702FF00214FF48030FFF7FDFE18E0C2
:101A3000B048844209D101214804FFF7F5FE002196
:101A40004FF40030FFF7F0FE0BE0AB48844208D1C2
:101A500001218804FFF7E8FE00214FF48020FFF702
:101A6000E3FE10BD00220288944B98420ED0994BA1
:101A700098420BD0B0F1804F08D0914B984205D0DE
:101A8000904B984202D0904B984204D14FF68F73FE
:101A90001A404B881A438D4B984207D08C4B984282
:101AA00004D04FF6FF431A40CB881A4302808B883C
:101AB00083850B880385814B98420BD0854B9842D8
:101AC00008D08B4B984205D08A4B984202D08A4B63
:101AD000984201D10B7A038601238382704770B547
:101AE000002400220023058C4FF6FE763540058445
:101AF000028C8388048B4FF68F752C40B51E2C40CA
:101B00000D882C43751E2A400D892A434D882A438F
:101B10006A4DA8420BD06F4DA84208D0744DA84220
:101B200005D0744DA84202D0734DA84213D14FF690
:101B3000F7752A404D892A434FF6FB752A408D8858
:101B40002A434FF6FF652B404FF6FF552B408D89FA
:101B50002B43CD892B4383800483CD8885860284E3
:101B600070BD70B5002400220023058C4FF6EF767F
:101B700035400584028C8388048B48F6FF752C4021
:101B80004FF6FF452C400D884FF6FF7606EA0525F7
:101B90002C434FF6DF752A400D8906EA05152A43C6
:101BA0004D8806EA05152A43444DA84202D0494D06
:101BB000A8421DD14FF67F752A404D894FF6FF761A
:101BC00006EA05152A434FF6BF752A408D8806EAB6
:101BD00005152A434FF6FF352B404FF2FF752B407A
:101BE0008D8906EA85052B43CD8906EA85052B43B9
:101BF00083800483CD880587028470BD70B500247E
:101C000000220023058C4FF6FF6635400584028CC8
:101C10008388848B4FF68F752C404FF6FC752C40D3
:101C20000D882C434FF6FF552A400D894FF6FF765D
:101C300006EA05252A434D8806EA05252A431F4D55
:101C4000A84202D0234DA8421DD14FF2FF752A4071
:101C50004D894FF6FF7606EA05252A434FF6FF35F4
:101C60002A408D8806EA05252A434EF6FF752B404B
:101C70004DF6FF752B408D8906EA05152B43CD895E
:101C800006EA05152B4383808483CD8885870284EB
:101C900070BD70B5002200230024058C4EF6FF763F
:101CA00035400584038C8488828B48F6FF752A4072
:101CB0004FF6FF452A400D8820E00000002C01402F
:101CC0000004004000080040000C004000100040EC
:101CD0000014004000340140004C0140005001401D
:101CE0000054014000180040001C0040002000404B
:101CF0000040014000440140004801404FF6FF769B
:101D000006EA05252A434DF6FF752B400D8906EAA4
:101D100005352B434D8806EA05352B43FA4DA8427D
:101D200002D0FA4DA84208D14BF6FF752C408D89A0
:101D30004FF6FF7606EA85152C4384808283CD8892
:101D4000A0F84050038470BD828B4FF2FF331A40DD
:101D50008283828B4FF6FF7303EA01231A43828347
:101D60007047F0B50C461546002200210026078C6E
:101D70004EF6FF7C07EA0C070784828B018C4FF636
:101D8000FF7707EA043640F6FF473A404FF6FF7701
:101D900007EA05273A434FF6FF7707EA03373A4346
:101DA000D94FB8420ED0D94FB8420BD0B0F1804FC6
:101DB00008D0D74FB84205D0D64FB84202D0D64F40
:101DC000B84206D14DF6FF77394046F48057394383
:101DD00005E047F6FF57394044F480573943828382
:101DE0000184F0BD828B4FF6F3731A408283828B9D
:101DF0000A4382837047F0B50C4615460022002145
:101E00000026078C4FF6FF6C07EA0C070784828BCD
:101E1000018C4FF6FF7707EA04264FF60C773A401D
:101E20004FF6FF7707EA03172F433A43B64FB842FE
:101E30000ED0B64FB8420BD0B0F1804F08D0B44F9F
:101E4000B84205D0B34FB84202D0B34FB84206D122
:101E50004FF6FF57394046F48077394305E04FF29B
:101E6000FF57394044F48077394382830184F0BDC1
:101E7000028B4FF2FF331A400283028B4FF6FF733F
:101E800003EA01231A4302837047F0B50C46154656
:101E9000002200210026078C4FF6EF7C07EA0C0792
:101EA0000784028B018C4FF6FF7707EA041640F691
:101EB000FF473A404FF6FF7707EA03373A434FF6BA
:101EC000FF7707EA05273A438F4FB8420ED08F4F6E
:101ED000B8420BD0B0F1804F08D08D4FB84205D03A
:101EE0008C4FB84202D08C4FB84206D14FF6DF7704
:101EF000394046F01007394305E04FF65F77394027
:101F000044F01007394302830184F0BD028B4FF681
:101F1000F3731A400283028B0A4302837047F0B5C1
:101F20000C46154600220021068C4FF6FE773E40F7
:101F30000684028B018C4FF60C7632407E1C06EA3A
:101F400003162E433243704EB0420ED06F4EB04255
:101F50000BD0B0F1804F08D06D4EB04205D06D4E21
:101F6000B04202D06C4EB04206D14FF6FD76314001
:101F700044F00106314305E04FF6F576314044F078
:101F80000106314302830184F0BD70B505460C465D
:101F90005D4885420ED05D4885420BD0B5F1804F3B
:101FA00008D05B48854205D05A48854202D05A483D
:101FB000854200D100E000BF208850B92389A28863
:101FC00061882846FFF7ABFFE1882846FFF79EFFB0
:101FD00025E0208804280AD12389A2886188284620
:101FE000FFF753FFE1882846FFF742FF17E02088FC
:101FF00008280AD12389A28861882846FFF7FBFEBA
:10200000E1882846FFF7EEFE09E02389A28861886F
:102010002846FFF7A6FEE1882846FFF795FE70BD2B
:102020002DE9F04105460C4600260127608808B9D5
:10203000022600E00026A088012801D1022700E046
:1020400001272088A0B92389A28861882846FFF744
:1020500066FFE1882846FFF759FF23893A46314653
:102060002846FFF712FFE1882846FFF701FF13E03B
:102070002389A28861882846FFF707FFE188284660
:10208000FFF7F6FE23893A4631462846FFF747FF19
:10209000E1882846FFF73AFFBDE8F0810A884B88BF
:1020A0001A438B881A43CB881A430B891A434B89EE
:1020B0001A438B891A43A0F8442070474FF6FF71EA
:1020C000818000210180C180418001727047002120
:1020D000018041808180C180018141818181C181F4
:1020E0007047002101804180012181800021C18051
:1020F000018170470021018041808180C180018180
:102100004181818170470000002C01400034014072
:102110000004004000080040000C004021B102888B
:1021200042F00102028004E002884FF6FE731A407A
:102130000280704731B1B0F8442042F40042A0F868
:10214000442005E0B0F84420C2F30E02A0F8442079
:1021500070471AB183890B43838102E083898B43E3
:10216000838170478182704741EA0203A0F84830BA
:1021700070471AB183890B43838102E083898B43C3
:102180008381704701894FF6F872114001817047D1
:102190000A46002101894FF68F73194011430181CE
:1021A000704730B504460D4629462046FFF7F0FF3C
:1021B000208940F00700208130BD2DE9F041044620
:1021C0000D4616461F46602D06D13B46012231467C
:1021D0002046FFF75AFE05E03B46012231462046E5
:1021E000FFF79DFE29462046FFF7D2FF208940F0E9
:1021F00007002081BDE8F08130B50C46002101893F
:10220000C9B24FF6FF7505EA032515432543294357
:10221000018130BD2DE9F04105460E46174698462E
:10222000002443463A4631462846FFF7E5FF2C890D
:102230004FF6F870044044F007044FF68F700440E6
:1022400044F070042C81BDE8F081F0B504460D46E1
:1022500016461F463B46324629462046FFF7CCFF2E
:10226000208940F480402081F0BD01858282704742
:102270000A46002101884FF68F73194011430180EF
:102280007047F0B50C4615461E460021002200237B
:102290000189028B038C4FF6F877394021434FF6C2
:1022A000FC473A4040F201173A434FF6DD773B4096
:1022B0004FF6FF7707EA06172F433B43018102835E
:1022C0000384F0BD0A460021018B4FF68F7319403D
:1022D0001143018370470A460021018B48F6FF73C2
:1022E00019404FF6FF7303EA022319430183704735
:1022F0000A460021818B4FF68F7319401143818369
:1023000070470A460021818B48F6FF7319404FF64B
:10231000FF7303EA022319438183704721B10288C6
:1023200042F08002028004E002884FF67F731A4078
:102330000280704721B1828842F00402828004E06A
:1023400082884FF6FB731A408280704721B18288E1
:1023500042F00802828004E082884FF6F7731A4048
:102360008280704721B1828842F00102828004E0BD
:1023700082884FF6FE731A40828070470A46002119
:10238000018B4FF6F77319401143018370470A46DA
:102390000021018B4FF2FF7319404FF6FF7303EAE0
:1023A00002231943018370470A460021818B4FF6AF
:1023B000F77319401143818370470A460021818BCE
:1023C0004FF2FF7319404FF6FF7303EA02231943DC
:1023D000818370470A460021018B4FF6FB73194039
:1023E0001143018370470A460021018B4FF6FF33EA
:1023F00019404FF6FF7303EA022319430183704724
:102400000A460021818B4FF6FB73194011438183EB
:1024100070470A460021818B4FF6FF3319404FF673
:10242000FF7303EA02231943818370470A460021A0
:10243000018B4FF67F7319401143018370470A46A1
:102440000021018BC1F30E014FF6FF7303EA022353
:102450001943018370470A460021818B4FF67F7331
:1024600019401143818370470A460021818BC1F3D3
:102470000E014FF6FF7303EA02231943818370476D
:102480000A460021018C4FF6FD7319401143018467
:1024900070470A460021018C4FF6F773194011432B
:1024A000018470470A460021018C4FF6DF73194002
:1024B0004FF6FF7303EA02131943018470470A467B
:1024C0000021018C4FF67F7319404FF6FF7303EA2A
:1024D00002131943018470470A460021018C4FF60C
:1024E000FF5319404FF6FF7303EA02231943018497
:1024F00070470A460021018C4FF2FF7319404FF6D6
:10250000FF7303EA02231943018470470A4600213E
:10251000018C4DF6FF7319404FF6FF7303EA023347
:1025200019430184704730B5002301248C40A3B2C5
:10253000048C9C430484048C02FA01F5ADB22C4354
:10254000048430BD30B5002304248C40A3B2048C35
:102550009C430484048C02FA01F5ADB22C4304843C
:1025600030BD70B503460020002418461830012500
:102570008D40ACB21D8CA5431D8409B1082909D139
:1025800000EB6100056825F07005056005681543DE
:1025900005600EE00D1FC5F34E052844056825F4BF
:1025A000E045056005684FF6FF7606EA02263543EA
:1025B000056070BD21B1028842F00202028004E091
:1025C00002884FF6FD731A400280704721B10288DD
:1025D00042F00402028004E002884FF6FB731A40C6
:1025E0000280704721B1828842F08002828004E03C
:1025F00082884FF67F731A408280704702884FF6B8
:10260000F7731A40028002880A430280704782886A
:102610004FF68F731A40828082880A438280704707
:1026200002894FF6F8731A40028102890A43028137
:10263000704702894FF67F731A40028102890A436C
:102640000281704781847047818570478186704719
:102650000187704781877047A0F840107047028853
:102660004FF6FF431A40028002880A4302807047F7
:102670000146888E70470146088F70470146888F53
:1026800070470146B1F8400070470146888C70479A
:102690000146088D704702460020138A0B400BB19B
:1026A000012000E000207047CA430282704730B525
:1026B0000246002000230024158A05EA01039589BB
:1026C00005EA010413B10CB1012000E0002030BD87
:1026D000CA4302827047421C10F8011B0029FBD13B
:1026E000801A70472DE9F04D81EA030404F0004B95
:1026F00021F0004514464FF0000A23F0004150EA53
:10270000050220D054EA01021DD0C5F30A57024643
:10271000C5F31303C1F31300C1F30A5640F4801547
:1027200043F48013A7EB0608101BD64608F2FD38C9
:1027300073EB050002D308F1010801E092185B4138
:10274000B8F1000F03DA00200146BDE8F08D00204B
:102750004FF48011064684460EE0171B73EB050705
:1027600005D3121B63EB050306434CEA010C490831
:102770004FEA300092185B4150EA0107EDD152EA6E
:10278000030012D082EA040083EA0501084305D061
:10279000101BAB4106D20122002306E000224FF0BD
:1027A000004302E06FF0010253101AEB06004CEBFD
:1027B000085110EB0A0041EB0B01BDE8F04D00F0B1
:1027C0003AB80EB5C10F80EAE0700844CA0700218C
:1027D00040F233438DE80E000A460B4600F03AF80B
:1027E00003B000BDC1F30A5210B5C1F3130140F2AA
:1027F000FF3341F480119A4201DA002010BD40F20B
:1028000033439A42A2F2334203DC524200F003F80F
:1028100010BD904010BD202A04DB203A21FA02F0BE
:102820000021704721FA02F3D040C2F1200291400A
:1028300008431946704710B5141E73F1000408DAF6
:10284000401C41F1000192185B411A4301D120F074
:10285000010010BD2DE9F04D92469B4611B1B1FA31
:1028600081F202E0B0FA80F22032904600F09AF94C
:1028700004460F4640EA0A0041EA0B0153465A4615
:10288000084313D0114653EA010019D0C8F14002A1
:102890005046FFF7C0FF05460E4650465946424691
:1028A00000F080F9084305D0012004E020463946B5
:1028B000BDE8F08D0020054346EAE0762C4337431F
:1028C0000A986305E40AA0EB08000022FD0A44EA26
:1028D00047540A3002D500200146E9E701051019E6
:1028E0006941DDE9084500196941BDE8F04DA2E7FD
:1028F0002DE9FE4F804681EA0300C00F0C46009090
:1029000021F0004123F00045B8EB0200A94105D2B7
:102910004046214690461C460B46024623F00040A6
:10292000104347D0270DC7F30A00C3F30A510290A2
:10293000401A019040286BDAC3F3130040F4801B67
:102940000098924620B10023D2EB030A63EB0B0BF5
:1029500001985946C0F14002504600F023F906465E
:102960000D4650465946019A00F02BF910EB08002D
:102970006141002487EA115284EAE7731A4340D088
:10298000009A62B3019A012A4FEA075215DC001B34
:1029900061EB02014FF0004202EA0752CDE900422A
:1029A000001C41F5801132462B46FFF753FF03B060
:1029B000BDE8F08F40462146F9E7001B61EB0201BC
:1029C000001C41F5801300185B412018A2F5001788
:1029D00047EB030140EAD570B6196D4111E06D086F
:1029E0004FEA360645EAC0754FEA0752001B61EB15
:1029F0000201001C41F5801149084FEA300000191E
:102A0000514132462B4603B0BDE8F04FFFF713BFEC
:102A10000098012240000023D0EB020263EBE07338
:102A2000009821464FEAE074B8EB000061EB040126
:102A3000E9E783F000435BE781F0004158E72DE9C7
:102A4000FE4F81EA030404F0004421F000410094A9
:102A50004FF0000B23F0004350EA01045ED052EA2D
:102A600003045BD0C3F30A54C1F30A552C44A4F207
:102A7000F3340194A0FB0254C1F3130141F480111B
:102A8000C3F3130343F4801301FB024400FB034E22
:102A9000840A970A44EA815447EA8357A4FB0768EB
:102AA00002958D0A05FB07854FEA932C04FB0C5415
:102AB0002705029D4FEA065847EA1637B5EB080589
:102AC0006EEB070C870E920E47EA811742EA8312DB
:102AD000A7FB0201B6EB0B0164EB00042B0D43EAEC
:102AE0000C335E1844EB1C50DA465146E7FB0201FA
:102AF000C5F313044FEA0B3343EA14534FEA04328D
:102B0000019C43EA0603A4F10C040294009CCDE965
:102B100000B4FFF79FFE03B0BDE8F08F0020014630
:102B2000F9E770B521F0004303430CD0C1F30A5517
:102B30000024D5EB040564EB0403D617AD1AB341AA
:102B400002DB0020014670BD201841EB025170BD30
:102B500030B5041E71F1000404DB4FF00044404224
:102B600064EB0101141E73F1000405DB1C464FF0F9
:102B70000043524263EB0403994208BF904230BDC8
:102B8000064C074D06E0E06840F0010394E80700BA
:102B900098471034AC42F6D3FDF7CEFA80380008DF
:102BA000A0380008202A04DB203A00FA02F10020B5
:102BB00070479140C2F1200320FA03F3194390407B
:102BC0007047202A06DBCB17203A41FA02F043EA8D
:102BD000E07306E041FA02F3D040C2F120029140D6
:102BE0000843194670472DE9F04D00231A461B1A79
:102BF0008A4103DB00200146BDE8F08DC1F30A5293
:102C0000C1F3130141F480154FF0000BD10702D13D
:102C100000186D41521E0027044640F2FF1138464D
:102C200001EB620A3E468046024600204FF48011C6
:102C3000FFF7F1FDC2197141BB1846EB0100B4EB7F
:102C4000030C75EB000C04D3E41A65EB0005174682
:102C50000E46241908F101006D4180463428E3DD59
:102C6000F91946EB0600091BA84103D24FF0FF32C9
:102C7000134601E0002213461BEB070046EB0A5106
:102C8000BDE8F04DFFF7D7BD490050EAC12018BF9D
:102C900004204A0D18BF40F0010040F2FF72B2EB71
:102CA000515F08BF40F00200012808BF05207047AF
:102CB0002DE9F0414F1E00EBC7010446D1E90001A8
:102CC00015461E4637F006020DD02A463346FFF75A
:102CD000B6FE7F1E04EBC703D3E90023FFF708FE0F
:102CE00037F00602F1D1022F25D0042F13D0062F82
:102CF00018BFBDE8F0812A463346FFF7A0FED4E9AD
:102D00000A23FFF7F5FD2A463346FFF798FED4E97C
:102D10000823FFF7EDFD2A463346FFF790FED4E97E
:102D20000623FFF7E5FD2A463346FFF788FED4E980
:102D30000423FFF7DDFD2A463346FFF780FED4E982
:102D40000223FFF7D5FD2A463346FFF778FED4E984
:102D50000023BDE8F041FFF7CBBD00000022134681
:102D600010460149FFF7BEBC0000F03FFFF7C0BDB1
:102D70000022134610461146FFF7B4BC40F2013260
:102D800000204FF0E041FFF7CCBE0000024A0020D7
:102D90001107FFF7C6BE000001FDFFFF02E008C8F3
:102DA000121F08C1002AFAD170477047002001E0C5
:102DB00001C1121F002AFBD17047000001490860C1
:102DC000704700004C0000202DE9F04D1D460C46D8
:102DD00098B0174621F0004123F00043002814BFAB
:102DE0004FF0010C4FF0000C0CEB440CFE4A0CEBC6
:102DF00002064FEA620C66452BD33E0018BF01263F
:102E000006EB45061644F94A964222D3F84A53EA9D
:102E1000070C02D0944205D148B918B000201146E1
:102E2000BDE8F08D002808BF4FF0000C01D04FF036
:102E3000010C0CEB440212F5001F0AD8002F14BF3E
:102E40004FF0010C4FF0000C0CEB450212F5001F87
:102E500007D918B03A462B462146BDE8F04DFFF79A
:102E600085BF0022DFF88CA3002CB8BF534526DABB
:102E7000DFF884C36345A8BF022220DADFF870C3FD
:102E80009C451CDCDFF874C30CEB235CBCF1140F15
:102E900008DDCCF1340627FA06FC0CFA06F6BE4231
:102EA0000DD108E05FB9CCF1140623FA06FC0CFA48
:102EB00006F69E4203D10CF00102C2F1020251EA71
:102EC000000C19D1002D17DA002C18BF022A01D0EE
:102ED000012A07D00220FFF771FF18B0BDE8F04DBE
:102EE000FFF73CBF0220FFF769FFFFF737FF18B07D
:102EF00081F00041BDE8F08DB7F1000C6CD1534575
:102F000025D104F1804212F5801201BF0028002073
:102F1000B74918B008BFBDE8F08DB548884207DC56
:102F2000002DA1BF6046294618B0BDE8F08D07E02E
:102F3000281E05DA80F0004118B06046BDE8F08D2B
:102F4000AF497944D1E9000118B0BDE8F08DDFF850
:102F5000A0C2634525D1002D1FDA19B1514512D108
:102F6000D8B909E0002840F0EC82A24A214618B006
:102F700062F31E01BDE8F08D0020214618B060F319
:102F80001E01BDE8F08D08DA18B02346BDE8F04D0B
:102F9000024600206146FFF7A5BB18B02146BDE8F8
:102FA000F08D514518DAB5F1804F0DD0A5F1005CD8
:102FB000BCF1FF5C10D1B4F1000C0DDB18B0614620
:102FC000BDE8F04D00F0ECBB234618B00246BDE86A
:102FD000F04D1946FFF733BD060024F0004C3BD1FD
:102FE000D9B1514533D1002C06DD002DA1BF002001
:102FF000514618B0BDE8F08D002C01DD002D1BDB23
:10300000002C13DA002D11DB012A4FF0000014BF51
:1030100078497C4918B0BDE8F08D022A18BF002C11
:103020000AD0012A08D1002C06DA0AE0002CB8BF29
:10303000002D11DA012A04D0002018B00146BDE8A5
:10304000F08D18B000204FF00041BDE8F08DA1F1E7
:103050004050B0F17F601AD0012000EBE47050EADC
:10306000020421D0624C521E4FF0000B104304BFEB
:103070004FF0000B644C654883427CDD644A654830
:1030800093421FDD884217DB002D25DB37E0002C43
:1030900000DA4AB1022A0CBF01204FF0FF3018B00D
:1030A000BDE8F04DFFF78DBB0120FFF787FE18B09C
:1030B000BDE8F04DFFF75CBE4D4A8A4202DC002DB0
:1030C0000ADC1CE0814202DA002D18DA04E0484BE9
:1030D000994220DD002D12DD0220FFF76FFEFFF781
:1030E0004DFE05460E460022534658462146FFF740
:1030F000A6FC18B066F31E012846BDE8F08D02203C
:10310000FFF75CFEFFF742FE0A46214618B062F365
:103110001E01BDE8F08D002230466146FFF789FCB4
:1031200080460E466FF00102FFF7FBFC4FF0553270
:10313000394BFFF781FC42463346FFF780FC002203
:10314000364BFFF779FC82464246334604911046DF
:103150001946FFF774FC5246049BFFF770FC8A4641
:1031600000904FF0C0422E4B40463146FFF767FCBF
:103170002C4A2B4B00E027E0CDE906015146009890
:10318000FFF75DFC82460191274A284B40463146B5
:10319000FFF755FC5246019BFFF74BFC82460B465E
:1031A00002460591DDE90601FFF7A2FBDDE90623F2
:1031B000002688463046FFF73CFC5246059BFFF749
:1031C0003BFC024600F07EB90020B1F5801F07DA13
:1031D000352230466146FFF7A4FC06466FF0340006
:1031E00000EB215024E00000FFFF1F00FFFF0F0055
:1031F0000000F03F0000F07F0000404301FCFFFFB3
:10320000320900000000F0FF0000F0BF0000E041C4
:103210000000F043FFFFEF3F5555D53F0000E03F72
:103220004715F73FFE822B6544DF5DF80BAE543E39
:10323000A0F2FF300190C1F3130040F07F6141F034
:1032400040510291FE498842D8BF002004DDFD496B
:103250008142C8BF012001DD0D9008E000200D90E3
:103260000198401C01900298A0F5801002900299EC
:10327000F54878440B910D9900EBC100D0E900238B
:103280000F9330460A920B99FFF7D3FBCDE9060165
:10329000DDE90A2130460F9BFFF72AFB02460B4669
:1032A0000020EA49FFF71EFA059102460B460090FE
:1032B000DDE90601FFF7C3FB1490E5488A464FF0AD
:1032C000000878440299006812904FF0005040EADC
:1032D00061010D980F9B01EB804000F500210991E1
:1032E0000A9A1298FFF7A5FB32460B9BFFF7A4FB47
:1032F00042465346FFF7A3FB06460291404651461D
:10330000099B129AFFF79BFBDDE90623FFF794FB6D
:103310003246029BFFF78DFB059B009AFFF78FFB60
:103320000091149A0490534610461946FFF787FB04
:1033300006460246C7480B46029106217844FFF72D
:10334000B7FCCDE90510029B324610461946FFF73F
:1033500076FBDDE90532FFF772FB05910646534621
:1033600040461946149AFFF7C3FA009B049AFFF7E8
:1033700066FB3246059BFFF7BBFACDE905104246D6
:10338000534610461946FFF75AFB0022B24B0291F2
:103390000A90FFF7ADFADDE90532FFF7A9FA0E460C
:1033A0004246AD4B4046FFF744FB029B0A9AFFF7AB
:1033B00040FBDDE90532FFF73FFB424602910A90F0
:1033C000334610465146FFF73AFBCDE90601534616
:1033D000149A02990A98FFF732FB8A460290334604
:1033E000424600990498FFF72AFB5346029AFFF7DA
:1033F0007FFA82460B4602460591DDE90601FFF79A
:1034000077FADDE90623002088460646FFF711FB20
:103410005246059BFFF710FB824609914FF0604230
:103420008E4B30464146FFF70AFB049006918C4ACA
:103430008A4B50460999FFF702FB82460291894A5E
:10344000894B30464146FFF7FAFA5246029BFFF796
:103450004FFA864B7B440D9A03EBC203D3E900235A
:10346000FFF746FA0E9007910198FFF7AAF9059128
:10347000DDE9061382460E9A0498FFF739FA7C4A72
:103480007A440D9B02EBC303D3E90023009302921D
:10349000FFF72EFA5246059BFFF72AFA00268846C8
:1034A00052463046059BFFF7C4FA009B029AFFF78D
:1034B000C0FA069B049AFFF7BCFA079B0E9AFFF727
:1034C000BBFA024600200B46029038462946FFF719
:1034D000B6FA824601912B4638461946029AFFF702
:1034E000A8FA32464346FFF7AAFA5246019BFFF775
:1034F000FFF907468A463246434629460298FFF7B7
:103500009EFA05460E463A465346FFF7F1F9594AE8
:103510008846914221DBA8EB020353EA000210D156
:103520002A463346FFF785FACDE90401524A534B48
:1035300038465146FFF7DCF9DDE90423FFF708FBC5
:1035400021D20220FFF73AFCFFF718FC0A46214679
:1035500018B062F31E01BDE8F08D494B28F000421F
:103560009A4210D3474A08EB020353EA00027FF461
:10357000C6AD2A463346FFF75CFA3A465346FFF794
:10358000E7FA7FF6BCAD0022019228F000403E49E8
:103590003E4A01EB2051824223DA481C4FF480114D
:1035A00021FA00F040443A4AC0F30A517A44394BB8
:1035B000A1F2FF31CB4020EA0303C0F3130040F433
:1035C0008010C1F11401C84012680190B8F1000FD9
:1035D000BCBF4042019028463146FFF72AFA054613
:1035E0000E462A46334638465146FFF781F94FF0DA
:1035F00000084246284B40460591FFF720FACDE9E6
:103600000601264A264B40460599FFF718FA009115
:1036100002902A46334640460599FFF70AFA3A4691
:103620005346FFF709FA1F4A1F4BFFF708FA009BA2
:10363000029AFFF75DF90746884602460B4635E0D9
:103640008E9803007AB60B007A0500000000F03F68
:10365000B2050000E00400000000084009C7EE3F8A
:10366000FD033ADCF5015B14E02F3EBEB803000019
:103670007C03000000009040FE822B654715973CBC
:1036800000CC904000346F3F01FCFFFF0000E03FA2
:10369000C8020000FFFF0F00432EE63F396CA80C64
:1036A000615C20BEEF39FAFE422EE63FDDE90601FD
:1036B000FFF71EF9DDE9062305460E46FFF7B9F9C7
:1036C0003A464346FFF7B8F90F462A46334600907C
:1036D00010461946FFF7B3F9824602462E4888463F
:1036E0000B4605217844FFF7E3FA52464346FFF7BD
:1036F000A6F92A463346FFF79FF980468A463B469D
:1037000028463146009AFFF79AF93B46009AFFF7A0
:10371000EFF80691009000224FF08043404651465A
:10372000FFF787F90F460C9042465346284631462C
:10373000FFF785F93B460C9AFEF7D4FF069B009AEB
:10374000FFF777F92A463346FFF773F90022134B48
:10375000FFF772F9054601980E4601EB0051081576
:10376000002810DC28463146019AFFF7DAF9FFF706
:103770008BFA042808BFFFF709FB28463146019A57
:10378000FFF7CFF905460B4618B02A4658462146A2
:10379000BDE8F04DFFF753B9680100000000F03FAD
:1037A0002DE9F04106460F46FFF71DFA041E0D46AF
:1037B00018BF0120284320F00040C0F17F6000F1D5
:1037C000E040C00F0ED0301C18BF0120384320F05D
:1037D0000040C0F17F6000F1E040C00F04BF012055
:1037E000FFF7ECFA20462946BDE8F0810000000012
:1037F000000000000000F03F000000000000F83F63
:1038000000000000000000000000004003B8E23F9C
:10381000000000000000000006D0CF43EBFD4C3E4E
:10382000033333333333E33FFFAB6FDBB66DDB3F43
:103830004D268F515555D53F01411DA96074D13F8B
:1038400065DBC9934A86CD3FEF4E454A287ECA3F85
:103850003E5555555555C53F93BDBE166CC166BF07
:103860002CDE25AF6A56113FF16BD2C541BDBBBE00
:10387000D0A4BE726937663E000000000000000060
:10388000A038000800000020500000009C2D000817
:10389000F03800085000002050040000AC2D000853
:1038A0000000000000000000000000000000000018
:1038B0000000000000000000000000000000000008
:1038C0000000000000A24A04000000000000000008
:1038D00001020304060708090000000001020304B6
:1038E000010203040607080902040608000000009C
:0400000508000131BD
:00000001FF
