:020000040800F2
:1000000028090020450100084D0100084F010008A3
:1000100051010008530100085501000800000000CC
:100020000000000000000000000000005701000870
:1000300059010008000000005B0100085D01000894
:100040005F0100085F0100085F0100085F01000810
:100050005F0100085F0100085F0100085F01000800
:100060005F0100085F0100085F010008CD1500086E
:100070005F0100085F0100085F0100085F010008E0
:100080005F0100085F0100085F0100085F010008D0
:100090005F0100085F0100085F01000829170008E0
:1000A0005F0100085F0100085F0100085F010008B0
:1000B000893B0008053C0008293D00085F01000855
:1000C0005F0100085F0100085F0100085F01000890
:1000D0005F0100085F010008594000085F01000847
:1000E0005F0100085F0100085F0100085F01000870
:1000F0005F0100085F0100085F0100085F01000860
:100100005F0100085F0100085F0100085F0100084F
:100110005F0100085F0100085F0100089D3D0008C5
:100120005F0100085F0100085F0100085F0100082F
:10013000DFF80CD000F046FD00480047ED6F0008E6
:10014000280900200648804706480047FEE7FEE7EA
:10015000FEE7FEE7FEE7FEE7FEE7FEE7FEE7FEE777
:10016000693A0008310100082DE9F0410024061B1E
:10017000254671F1000605DA01240027D0EB0700BF
:1001800067EB0101161E73F1000605DA0027D2EBBA
:100190000702012567EB030300F0A0FB86460E462D
:1001A00017469C46AC4204D00025D0EB050E65EB0B
:1001B000010624B10020D2EB000760EB030C70466F
:1001C00031463A466346BDE8F081D2B201E000F81C
:1001D000012B491EFBD270470022F6E710B51346EB
:1001E0000A4604461946FFF7F0FF204610BD30B519
:1001F00004460020034600E05B1C934203D2E05C0F
:10020000CD5C401BF8D030BDF0B480EA0102D40FC1
:100210004200B2EB410F02D20246084611464A00A4
:1002200042D0C30DDDB2C1F3C752AD1A202D35DA6D
:10023000C1F3160141F4000204B15242C5F1200697
:1002400002FA06F12A411044B3EBD05F23D0C4B1C7
:10025000012DA0EBC35009DCF0BC4FF0004202EAD4
:10026000C352DBB200F5000000F0F1BB400000F12A
:10027000807000EBC350A0F1807040EAD17049005B
:1002800009E0490841EAC071A0EBC35000F5000045
:10029000400800EBC350F0BC00F0D0BB614201222B
:1002A00002EB4101001BF6E7F0BC704781F0004112
:1002B000AAE780F00040A7E780EA010210B502F04B
:1002C0000043400022D04A001FD0010E01EB126112
:1002D000C0F35600C2F3560240F4000042F400029C
:1002E000A0FB022000047F39140400D0401C50EA17
:1002F000124001D44000491EC2B20C0604EBD010DB
:10030000401C4008802A02D003E0002010BD20F0ED
:100310000100002900DA0020184310BD30B480EA43
:10032000010202F0004530F0004221F0004013D0FD
:1003300090B1C30DD40DC2F31601C0F31600E41A38
:1003400041F4000140F400027D34914201D3641C69
:1003500000E04900002C02DA30BC002070474FF466
:1003600000000023914201D3891A034340084FEA59
:100370004101F7D151B1914202D14FF0004105E066
:1003800002D24FF0010101E06FF0010103EBC45014
:10039000284430BC00F052BB2DE9FE4F804681EA74
:1003A0000300C00F0C46009021F0004123F00045EF
:1003B000B8EB0200A94105D24046214690461C46B2
:1003C0000B46024623F00040104347D0270DC7F3E9
:1003D0000A00C3F30A510290401A019040286BDAD8
:1003E000C3F3130040F4801B0098924620B1002311
:1003F000D2EB030A63EB0B0B01985946C0F14002A4
:10040000504600F09CFA06460D4650465946019A61
:1004100000F0B4FA10EB08006141002487EA1152A1
:1004200084EAE7731A4340D0009A62B3019A012A22
:100430004FEA075215DC001B61EB02014FF000424E
:1004400002EA0752CDE90042001C41F58011324614
:100450002B4600F039FB03B0BDE8F08F4046214643
:10046000F9E7001B61EB0201001C41F58013001845
:100470005B412018A2F5001747EB030140EAD57055
:10048000B6196D4111E06D084FEA360645EAC075B0
:100490004FEA0752001B61EB0201001C41F580117D
:1004A00049084FEA30000019514132462B4603B04B
:1004B000BDE8F04F00F0F9BA009801224000002397
:1004C000D0EB020263EBE073009821464FEAE07440
:1004D000B8EB000061EB0401E9E783F000435BE760
:1004E00081F0004158E72DE9FE4F81EA030404F052
:1004F000004421F0004100944FF0000B23F0004332
:1005000050EA01045ED052EA03045BD0C3F30A54FC
:10051000C1F30A552C44A4F2F3340194A0FB025415
:10052000C1F3130141F48011C3F3130343F48013A7
:1005300001FB024400FB034E840A970A44EA8154FB
:1005400047EA8357A4FB076802958D0A05FB0785D8
:100550004FEA932C04FB0C542705029D4FEA0658E2
:1005600047EA1637B5EB08056EEB070C870E920EBF
:1005700047EA811742EA8312A7FB0201B6EB0B019F
:1005800064EB00042B0D43EA0C335E1844EB1C5063
:10059000DA465146E7FB0201C5F313044FEA0B3379
:1005A00043EA14534FEA0432019C43EA0603A4F1E0
:1005B0000C040294009CCDE900B400F085FA03B06D
:1005C000BDE8F08F00200146F9E72DE9F04D81EA02
:1005D000030404F0004B21F0004514464FF0000ADC
:1005E00023F0004150EA050220D054EA01021DD058
:1005F000C5F30A570246C5F31303C1F31300C1F351
:100600000A5640F4801543F48013A7EB0608101B2C
:10061000D64608F2FD3873EB050002D308F1010855
:1006200001E092185B41B8F1000F03DA00200146A7
:10063000BDE8F08D00204FF48011064684460EE0A0
:10064000171B73EB050705D3121B63EB050306436A
:100650004CEA010C49084FEA300092185B4150EA1D
:100660000107EDD152EA030012D082EA040083EAC6
:100670000501084305D0101BAB4106D2012200231F
:1006800006E000224FF0004302E06FF00102531039
:100690001AEB06004CEB085110EB0A0041EB0B0182
:1006A000BDE8F04D00F001BAC10F80EAE0700844E7
:1006B000CA079623002100F0CAB9962300221146EA
:1006C00000F0C5B90EB5C10F80EAE0700844CA0752
:1006D000002140F233438DE80E000A460B4600F03D
:1006E000F3F903B000BD0EB540F233410291002191
:1006F000CDE900110A460B4600F0E6F903B000BD53
:1007000000F0004220F00040C10DC0F3160040F49C
:1007100000007F2901DA00207047962903DCC1F12F
:100720009601C84001E096398840002AF4D0404242
:10073000704720F00040C10DC0F3160040F40000E7
:100740007F2901DA00207047962903DCC1F1960168
:10075000C840704796398840704770B5C1F30A5257
:1007600001F000450024C1F3130140F2FF3341F4CE
:1007700080119A4201DA002070BD40F233439A4260
:10078000A2F2334203DC524200F0E8F800E090406D
:100790002C43F1D0404270BDC1F30A5210B5C1F3F1
:1007A000130140F2FF3341F480119A4201DA002034
:1007B00010BD40F233439A42A2F2334203DC52426C
:1007C00000F0CCF810BD904010BD00F0004230F0B9
:1007D00000400AD0C10D01F56071C0F3160042EA75
:1007E0000151C2084007114370470020014670477D
:1007F00030B5041E71F1000404DB4FF000444042A8
:1008000064EB0101141E73F1000405DB1C464FF07C
:100810000043524263EB04038B4208BF824230BD67
:1008200030B5041E71F1000404DB4FF00044404277
:1008300064EB0101141E73F1000405DB1C464FF04C
:100840000043524263EB0403994208BF904230BD1B
:1008500001F0004330B421F0004150EA010206D01B
:100860000A0DA2F56072C1F31301002A02DC30BC4C
:1008700000207047440F44EAC104C100E01830BCB6
:1008800000EBC25000F0DAB8002801DBC0F10040F4
:10089000002901DBC1F1004181427047002801DBE2
:1008A000C0F10040002901DBC1F1004188427047DE
:1008B00030B50B46014600202022012409E021FA30
:1008C00002F59D4205D303FA02F5491B04FA02F52D
:1008D0002844151EA2F10102F1DC30BD2DE9F05FC4
:1008E0000546002092469B4688460646814640249F
:1008F0001BE0284641464746224600F02FF8534663
:100900005A46C01A914110D311461846224600F0AB
:1009100016F82D1A67EB01084F46224601200021E8
:1009200000F00DF817EB00094E41201EA4F1010460
:10093000DFDC484631462A464346BDE8F09F202A80
:1009400004DB203A00FA02F1002070479140C2F126
:10095000200320FA03F3194390407047202A04DB58
:10096000203A21FA02F00021704721FA02F3D04028
:10097000C2F120029140084319467047202A06DB45
:10098000CB17203A41FA02F043EAE07306E041FA5D
:1009900002F3D040C2F1200291400843194670474B
:1009A0000FB4002300B589B00CA900910B996FF02A
:1009B0000042CB601E4B06931E4B07930423CDE9E8
:1009C00001321D4A089202466B46002000F092F95F
:1009D00009B05DF814FB70B586B006464FF0FF30E5
:1009E0000091CDE90101002015460C4604903246E5
:1009F000694604A8FFF7D4FF03460498211825B1DF
:100A000008B10A4600E022462A6000280DD0002BDB
:100A100002DD0098884208D0081B0094CDE901044B
:100A20003246694604A8FFF7BBFF06B070BD000060
:100A30002D0F00084B0F0008E90B00080029A8BF84
:100A40007047401C490008BF20F00100704710B4F7
:100A5000B0FA80FC00FA0CF050EA010404BF10BCAC
:100A6000704749B1CCF1200421FA04F411FA0CF1D9
:100A700018BF012121430843A3EB0C01CB1D4FEA12
:100A800000614FEA102042BF002010BC704700EB0D
:100A9000C35010440029A4BF10BC7047401C49003B
:100AA00008BF20F0010010BC704710B5141E73F190
:100AB000000408DA401C41F1000192185B411A431E
:100AC00001D120F0010010BD2DE9F04D92469B466A
:100AD00011B1B1FA81F202E0B0FA80F22032904610
:100AE000FFF72DFF04460F4640EA0A0041EA0B01DA
:100AF00053465A46084313D0114653EA010019D011
:100B0000C8F140025046FFF729FF05460E46504601
:100B100059464246FFF713FF084305D0012004E081
:100B200020463946BDE8F08D0020054346EAE076D0
:100B30002C4337430A986305E40AA0EB080000221F
:100B4000FD0A44EA47540A3002D500200146E9E78D
:100B5000010510196941DDE9084500196941BDE841
:100B6000F04DA2E770B521F0004303430CD0C1F370
:100B70000A550024D5EB040564EB0403D617AD1A1F
:100B8000B34102DB0020014670BD201841EB025149
:100B900070BDC1F30A52C1F3130140F2FF3341F4B7
:100BA00080119A4202DA00200146704740F2334336
:100BB0009A42A2F2334202DC5242FFF7CFBEFFF765
:100BC000BEBE0000064C074D06E0E06840F00103A1
:100BD00094E8070098471034AC42F6D3FFF7ACFA1C
:100BE0001C9B00083C9B0008C0B24FF4F05100F081
:100BF0000FBA00002DE9FF4F087881B09946FF2811
:100C000005D0491C2D2804D00024002308E000232F
:100C10000BE00124F9E703EB830300EB4303491CDA
:100C20000878FF28F7D104B15B42002000901478C7
:100C300001462D2C01D02B2C04D1521C2D2C12D06E
:100C40000024009400251678FF2E0ED00A24A0FB65
:100C500004C801FB0481002700FB0711521C16EB9E
:100C60000C006941EFE70124EBE7994450EA0102E7
:100C70000ED00024AA4D2646DFF8A88200F0DCF949
:100C800082468B46B9F1000009DAC9F100071BE082
:100C900001980021C0E9001105B0BDE8F08F0746BA
:100CA00012E0F80707D022462B4630464146FFF7B0
:100CB0001AFC0646884622462B4610461946FFF780
:100CC00012FC04460D467F10002FEAD1B9F1000F47
:100CD000324643465046594602DAFFF776FC01E0B9
:100CE000FFF701FC009A0AB181F00041019AC2E9C4
:100CF0000001D1E72DE9FF4F1F468DB0D7E901462E
:100D00004FF0FF382E2045464FF000090B90B9698F
:100D10006D1C0E988847396A824688470028F6D1AC
:100D2000BAF1FF3F0AD024F4D064002E11DDBAF1ED
:100D30002B0F08D0BAF12D0F0BD102E0404611B0B5
:100D4000ABE744F48064B9696D1C0E98884782460D
:100D5000761E6946600501D52D2000E02B208DF818
:100D6000000001F1010B0DF1200809E0B9696D1CCB
:100D70000E98884782460F9844F40074761E0560EA
:100D8000002E02DDBAF1300FF0D00B998A453ED12A
:100D900044F0800406E00F99681CA9F1010944F4AD
:100DA00000740860B9696D1C761E0E9888478246EB
:100DB0003028F0D02BE00B998A4505D1200603D4CA
:100DC00044F08004761E18E0504603F0D1FF08B3CB
:100DD0000DF11301761E44F400748B4508D2AAF17C
:100DE00030000BF8010B200607D5A9F1010003E044
:100DF000200602D409F101008146A00502D50F9911
:100E0000681C0860B9696D1C0E9888478246002EE0
:100E1000D1DC53E0002E51DDBAF1650F02D0BAF1FA
:100E2000450F4BD1A00549D5B9696D1C24F4407418
:100E3000761E0E9888478246002E0CDD2B2804D0A3
:100E4000BAF12D0F07D144F48074B9696D1C0E9866
:100E500088478246761EE00501D52D2100E02B2132
:100E600008F8011BCDF82C8021E00DF12901761E38
:100E700044F4007488450CD2AAF1300010F0FF0051
:100E800088F8000002D10B99884509D908F10108BA
:100E900006E0E00501D5244801E042F20F708146EA
:100EA000B9696D1C0E98884782460F980560002E20
:100EB00004DD504603F05CFF0028D6D1F9690E9896
:100EC0008847FF208BF8000088F80000002006907B
:100ED00007904B466A4608A906A8FFF78BFEA005B7
:100EE00002D46FF001002AE714F0240F0AD0E007C3
:100EF00014D1DDE906123868031D3B600068C0E9C3
:100F000000120BE0DDE90601FFF7A2FC0146E00755
:100F100004D13868021D3A600068016028460EE777
:100F2000000024400000F03FF1D8FFFF426842B1CA
:100F3000016811F8013B23B1521EC0E900121846A6
:100F400070470121C160881E704742685AB1C3686A
:100F5000016843B983688B4205D0491E521CC0E921
:100F60000012002070474FF0FF3070472DE9F04D20
:100F700000231A461B1A8A4103DB00200146BDE804
:100F8000F08DC1F30A52C1F3130141F480154FF003
:100F9000000BD10702D100186D41521E00270446F4
:100FA00040F2FF11384601EB620A3E468046024697
:100FB00000204FF48011FFF7D1FCC2197141BB181A
:100FC00046EB0100B4EB030C75EB000C04D3E41A00
:100FD00065EB000517460E46241908F101006D4126
:100FE00080463428E3DDF91946EB0600091BA841C9
:100FF00003D24FF0FF32134601E0002213461BEBF1
:10100000070046EB0A51BDE8F04DFFF74EBD00006A
:101010007F2801D9002208E0064A02EB5002C007EF
:10102000127800D1120902F00F020120904008400E
:1010300070470000A89A00080EB540F233420292B1
:101040000022CDE900221346FFF73EFD03B000BDAC
:1010500070B58C1810F8015B15F0070301D110F87A
:10106000013B2A1106D110F8012B03E010F8016BA7
:1010700001F8016B5B1EF9D12B0705D40023521E2A
:101080000DD401F8013BFAE710F8013BCB1A921C92
:1010900003E013F8015B01F8015B521EF9D5A14290
:1010A000D8D3002070BD21B1826842F00102826075
:1010B00003E0826822F001028260704710B50446A6
:1010C0001248844208D10121401502F01FF8002186
:1010D000601502F01BF817E00D48844208D1012189
:1010E000001502F013F80021201502F00FF80BE0B4
:1010F0000848844208D10121C80302F007F8002102
:101100004FF4004002F002F810BD0000002401403E
:1011100000280140003C0140014600208A6802F09E
:1011200004020AB1012000E0002070470146C86CAB
:1011300080B270470246002013680B400BB10120BB
:1011400000E000207047014600208A6802F0080293
:101150000AB1012000E000207047000030B50246CF
:101160000020002350680F4C20400D790C6844EAA1
:1011700005242043506090680B4C2040D1E9025474
:101180002C434D7944EA450420439060D06A20F412
:1011900070000C7C641EE4B2234340EA0350D0622A
:1011A00030BD0000FFFEF0FFFDF7F1FFF0B5044693
:1011B0000D4600200021092D11DDE068A5F10A0689
:1011C00006EB4607072606FA07F18843A5F10A064B
:1011D00006EB460603FA06F10843E0600CE02069DE
:1011E00005EB4507072606FA07F1884305EB450698
:1011F00003FA06F108432061072A0FDA606B561ED6
:1012000006EB86071F2606FA07F18843561E06EBF3
:10121000860605FA06F10843606322E00D2A0FDA1C
:10122000206BD61F06EB86071F2606FA07F18843B8
:10123000D61F06EB860605FA06F10843206310E088
:10124000E06AA2F10D0606EB86071F2606FA07F1F3
:101250008843A2F10D0606EB860605FA06F108435F
:10126000E062F0BD816841F008018160704721B102
:10127000826842F4A002826003E0826822F4A00245
:1012800082607047816841F004018160704700000E
:1012900038B504460121102001F028FF4FF44360C7
:1012A000ADF8000010208DF8030003208DF8020037
:1012B00069461E4800F016FB94B94FF480611B4844
:1012C00000F0BBFB4FF40061184800F0B6FB1021A2
:1012D000164800F0B2FB2021144800F0AEFB24E0D9
:1012E000012C10D1A102114800F0A9FBE1020F4826
:1012F00000F0A3FB10210D4800F0A1FB20210B48BA
:1013000000F09BFB11E0022C0FD16102074800F0B6
:1013100094FBA102054800F092FB1021034800F065
:101320008CFB2021014800F08AFB38BD00100140F1
:101330002DE9F04F9DB0642104A8FEF74DFF33481E
:101340000068FFF742FA044622460B4630A104A883
:1013500003F0E8F804AA0021084601F025FD304812
:101360000068FFF7A1F90646FFF72FFA0446224668
:101370000B462CA104A803F0D5F804AA01210020F3
:1013800001F012FD2B480068FFF78EF90646FFF7C3
:101390001CFA044622460B4627A104A803F0C2F813
:1013A00004AA0221002001F0FFFC0A21002000F025
:1013B00099FB0190FFF781F983464FF08B41FEF7CF
:1013C000ADFF8246FFF701FA4FF066321E4BCDE9C2
:1013D0000201FFF788F806464FF033321B4BFFF748
:1013E00082F804461A4A1B4BFFF777F880464246BC
:1013F0000B4619A104A803F095F804AA03210020C4
:1014000001F0D2FC00201DB0BDE8F08F7801002073
:10141000416E673A5B25302E32665D25252000003F
:10142000D80000205072653A5B25302E30665D2072
:1014300020000000DC0000204261636B3A5B253035
:101440002E30665D2020000066660A4033330B4074
:101450009A9999999999B93FB5E7D1B93A5B2530ED
:101460002E32665D5620200010B5024801F09AFA2F
:10147000002010BD7400002038B504460121102062
:1014800001F034FE4FF44C50ADF8000010208DF800
:10149000030003208DF8020069461F4800F022FA7D
:1014A000A4B94FF480511C4800F0C7FA4FF4005122
:1014B000194800F0C2FA4FF48071174800F0BDFAE5
:1014C0004FF40071144800F0B8FA24E0012C10D158
:1014D0002103114800F0B1FA61030F4800F0AFFAA0
:1014E00021020D4800F0A9FA61020B4800F0A7FAAA
:1014F00011E0022C0FD1E102074800F0A0FA21030D
:10150000054800F09AFAE101034800F098FA210238
:10151000014800F092FA38BD001001402DE9FC416D
:1015200004460D46904623480078002840D02249C2
:1015300022480068FFF7A8F90ED221491F48006829
:10154000FFF7ACF908D21F48007828B9424629466F
:10155000204602F0CBFE0BE0002001F045FF00200A
:1015600000F0D6FF002001F06DFF002000F0F6FF34
:1015700000201049087011480068FFF726F9064658
:101580000B46002004213246CDE90010014601F04F
:1015900039FB0D480068FFF718F906460B46002096
:1015A00004213246CDE900100146042001F02AFB57
:1015B000BDE8FC81000000200000A041780100206F
:1015C0000000A0C1010000207C01002070B50024B3
:1015D0000025114890F85800D0B900BF12E000254E
:1015E0000CE00E4800EB051030F814100A480830E3
:1015F00000EB041020F81510681C85B2052DF0DBF7
:10160000601C84B2082CEADB0120034981F85800F1
:10161000012000F005F870BD50020020B804002041
:1016200000F0805111B10349086001E002494860AF
:1016300070470000040402400000024038B500205A
:1016400000906B4601227521682005F029FC9DF869
:10165000000068280ED000BF2F48006800F4E0604A
:101660002E490843001D2C490860BFF3408F00BF7E
:1016700000BFFEE705F0D8FD00284CD1782006F029
:10168000ADFB20B926480078401C25490870782019
:1016900005F0B8FC20B922480078401C20490870A9
:1016A000C82006F04DFB20B91D480078401C1C499D
:1016B000087004F069FC20B919480078401C1849EA
:1016C0000870184805F057FC044604F0B7FE20B92E
:1016D00013480078401C1249087040F2731004F05F
:1016E000FBFA20B90E480078401C0D490870C8204C
:1016F00004F0D4FD20B90A480078401C084908705D
:1017000007F0AAF9012006F017FA20B9044800787A
:10171000401C0349087038BD0CED00E00000FA05DC
:10172000300100202001002010B5202000F014F826
:10173000012807D100F0EEF90120034908702020AC
:1017400000F004F810BD000000000020014908600E
:101750007047000014040140014600200022074B9E
:101760001B6803EA0102054B14331B680B4013B1DD
:101770000AB1012000E00020704700000004014091
:10178000002123498279002A3AD00A461268036868
:101790009A430B461A600A1D126803689A430B1D90
:1017A0001A60027911440A6803681A430A60184AE9
:1017B0000832126803689A43154B08331A601A1DE1
:1017C000126803689A43124B0C331A604279102A4C
:1017D0000ED11A1F126803681A430D4B08331A60A2
:1017E0001A1D126803681A43094B0C331A600DE086
:1017F0000749427911440A6803681A430A6005E000
:10180000027911440A6803689A430A60704700002D
:101810000004014010B5044622464FF4005102482E
:1018200000F040F910BD0000000C014010B5044666
:1018300022464FF48051024800F034F910BD0000F8
:10184000000C014008B54FF48050ADF800000220B4
:101850008DF8020010208DF8030069460A4800F058
:1018600041F84FF48040ADF8000048208DF80300A7
:101870006946054800F036F80120FFF7D7FF012040
:10188000FFF7C8FF08BD0000000C014010B504467A
:1018900022464FF40041024800F004F910BD000058
:1018A000000C014030B500228B071C0F0F2303FAF8
:1018B00004F20B4B8C1053F824309343084C8D10DA
:1018C00044F8253023468C1053F824308C07240F1D
:1018D00000FA04F42343024C8D1044F8253030BD47
:1018E000080001402DE9F0410246002500260020B5
:1018F00000230024002791F803C00CF00F0591F895
:1019000003C00CF0100CBCF1000F03D091F802C022
:101910004CEA050591F800C0BCF1000F31D0146805
:1019200000202BE04FF0010C0CFA00F3B1F800C0DE
:101930000CEA03069E4220D183004FF00F0C0CFAF4
:1019400003F7BC4305FA03FC4CEA040491F803C016
:10195000BCF1280F06D14FF0010C0CFA00FCC2F8C4
:1019600014C00AE091F803C0BCF1480F05D14FF054
:10197000010C0CFA00FCC2F810C0401C0828D1D39E
:101980001460B1F800C0BCF1FF0F34DD54680020D2
:101990002EE000F1080C4FF0010808FA0CF3B1F842
:1019A00000C00CEA03069E4221D183004FF00F0CC9
:1019B0000CFA03F7BC4305FA03FC4CEA040491F863
:1019C00003C0BCF1280F05D100F1080C08FA0CF88F
:1019D000C2F8148091F803C0BCF1480F07D100F1A0
:1019E000080C4FF0010808FA0CF8C2F81080401CEF
:1019F0000828CED35460BDE8F081000008B501216D
:101A0000082001F073FB4020ADF8000004208DF8A1
:101A1000030003208DF8020069460248FFF762FFC9
:101A200008BD0000000C01400246002093680B40F6
:101A30000BB1012000E00020704741617047016157
:101A40007047000008B50121102001F04FFB0F2066
:101A5000ADF8000004208DF8030003208DF802008B
:101A600069460E48FFF73EFF0F210C48FFF7E5FFE0
:101A70000121042001F03AFB3320ADF800000420DE
:101A80008DF8030003208DF8020069460448FFF733
:101A900029FF33210248FFF7D0FF08BD00100140A5
:101AA000000801400AB1016100E041617047000097
:101AB00010B504460723012221460948FFF776FBAB
:101AC00001210748FFF7D3FB00BF02210448FFF7BD
:101AD00031FB0028F9D00248FFF728FB10BD0000B9
:101AE000002801402DE9F04107460C46002500265C
:101AF00008E03846FFF7DCFF0544052001F0A0F9B7
:101B0000701CC6B2A642F4DBB5FBF4F080B2BDE8AF
:101B1000F08100002DE9F04F89B00446012C1ED160
:101B200001F004FB6748006880F0004066490860E7
:101B30006649B1F900104842FEF7B6FD64490860F5
:101B40006249B1F90400FEF7AFFD624908606249DD
:101B5000B1F90400FEF7A8FD60490860AFE0442138
:101B6000D02000F0C7F880464321D02000F0C2F812
:101B700008EB00273846FEF797FD05464821D020A0
:101B800000F0B8F880464721D02000F0B3F808EB09
:101B900000273846FEF788FD81463E21D02000F020
:101BA000A9F880463D21D02000F0A4F808EB0027DA
:101BB0003846FEF779FD82464021D02000F09AF8A1
:101BC00080463F21D02000F095F808EB00273846EA
:101BD000FEF76AFD06464FF08E412846FEF75EFE90
:101BE00005D24FF08F412846FEF760FB05464FF0C7
:101BF0008E414846FEF752FE05D24FF08F414846CF
:101C0000FEF754FB81464FF08E415046FEF746FEEC
:101C100005D24FF08F415046FEF748FB82464FF009
:101C20008E413046FEF73AFE05D24FF08F413046E6
:101C3000FEF73CFB0646264805603046FEF7C5FD2C
:101C4000CDE900015046FEF7C0FD0746DDE900235F
:101C500003F0CEFE0022224BCDE90201FEF743FC49
:101C6000204A214BCDE90401FEF7AFFCCDE9060186
:101C7000FEF7EEFD83462846FEF7A7FD4FF06632DD
:101C80001A4BCDE90601FEF7A0FC0746FEF7E0FD82
:101C90000546022C04D12946584600F081FA05E099
:101CA000032C03D12946584602F0E2FB1048006895
:101CB000054908600748C0F800900848066009B068
:101CC000BDE8F08F7001002078010020FC000020AA
:101CD0007C010020800100200201002088010020FA
:101CE00000806640F1D4C853FB210940666630404D
:101CF0009001002070B505460E46002400F0F0F873
:101D0000284600F0BBF8641C00F042F9304600F0B1
:101D1000B5F8641C00F03CF900F0E2F8691CC8B2A8
:101D200000F0ACF8641C00F033F9002000F06EF80D
:101D3000044600F009F9204670BD000010B50020EF
:101D40000E4908600E48006820F470600C49086075
:101D50000846006840F44070086000200949C1F856
:101D6000A801012001F08AF801200449086001F06F
:101D700085F800200349C1F8AC0110BDAC812142B7
:101D8000040C01400080214208B50121082001F027
:101D9000ADF94FF44060ADF8000010208DF803005D
:101DA00003208DF8020069460448FFF79BFD4FF4BD
:101DB00040610248FFF743FE08BD0000000C0140EF
:101DC00010B500200E4908600E48006820F47060CD
:101DD0000C4908600846006840F440700860012023
:101DE0000949C1F8A80101F049F801200449086037
:101DF00001F044F800200449C1F8AC0110BD000016
:101E0000AC812142040C01400080214270B505469E
:101E100000241748006820F47060154908600846DF
:101E2000006840F400600860002616E000201149B8
:101E30000860022001F022F801200F49C1F8AC012E
:101E40006006040E0B488438006808B1601CC4B2F8
:101E5000022001F013F8701CC6B2082EE6DB15B1A3
:101E6000FFF76CFF01E0FFF7ABFF204670BD0000FD
:101E7000040C0140AC8121420080214270B504462F
:101E80001448006820F47060124908600846006831
:101E900040F44070086000200F490860002516E0FB
:101EA000E0090D49091F08606006040E012000F0DA
:101EB000E5FF01200949C1F8AC0100F0DFFF002077
:101EC00005490860012000F0D9FF681CC5B2082D43
:101ED000E6DB70BD040C0140AC8121420080214250
:101EE00010B51648006820F4706014490860084670
:101EF000006840F4407008600120114908601148F2
:101F0000D0F8280108B9002010BD01200C49091D96
:101F1000086000F0B3FF00200A49C1F8A801084892
:101F20008038006808B10020EEE7012000F0A6FF2D
:101F300000200349091D08600120E5E7040C014069
:101F4000A88121420080214210B50E48006820F48B
:101F500070600C4908600846006840F440700860F2
:101F60000020094908600949C1F8A801012000F0D2
:101F700085FF0120044908600449C1F8A80100F068
:101F80007DFF10BD040C0140AC8121420080214244
:101F900010B500241548006820F4706013490860EB
:101FA0000846006840F4006008600120104908609D
:101FB00000F064FF01200F49C1F8AC0100F05EFFA2
:101FC0000AE0601CC4B2322C03DDFFF7BDFF002025
:101FD00010BD012000F052FF05488038006800283D
:101FE000EFD10349091D08600120F1E7040C01400D
:101FF000A88121420080214270B505460E46144654
:1020000031462846FFF776FE2070012070BDF8B5F6
:1020100006460F4614461D466A4639463046FFF7C7
:10202000EBFF2DB10120A0409DF80010084305E012
:102030000120A0409DF8001021EA0000C0B20090ED
:102040009DF800203946304600F036F8F8BD2DE9FD
:10205000F8430746884614461D46089E6A46414690
:102060003846FFF7C9FF28B3601CFF2101FA00F0D2
:10207000C4F108012944491EFF220A41104300F01F
:10208000FF09C5F1080006FA00F0C6B2C4F1070066
:1020900006419DF8000000EA090000909DF800004C
:1020A000304300909DF800204146384600F004F887
:1020B000BDE8F8830020FBE737B504460D4602ABC8
:1020C00001222946204600F001F83EBD2DE9F041ED
:1020D00080460D4616461F460024FFF701FF404686
:1020E000FFF7CCFEFFF754FF2846FFF7C7FEFFF7C8
:1020F0004FFF00BF06E0385DFFF7C0FEFFF748FF67
:10210000601CC4B2B442F6DBFFF71EFF0120BDE83D
:10211000F081000000B587B0012140F2044000F0DA
:10212000E5FF4FF4004000F0C5FF0120ADF80400CA
:1021300000208DF8070001A91748FFF7D3FB1748C7
:10214000FEF7BCFF002002908DF80C008DF80D000A
:102150004FF4602004900020059001208DF81800B5
:1021600002A90E48FEF7FAFF01210C48FEF79BFF7B
:102170000A48FFF777F800BF0848FEF7E4FF002899
:10218000FAD10648FFF77EF800BF0448FEF7C4FF07
:102190000028FAD107B000BD000801400028014026
:1021A0002DE9F04105460C46894801682046FEF7B6
:1021B0007DF80746874801683846FEF77DF80646F1
:1021C000854801683046FEF71FF883490860834858
:1021D000416883480068FEF769F806467F488168D1
:1021E0003046FEF763F87F4908607C48C06880F09D
:1021F000004048607948C06880F0004088607A48B4
:102200000068C860086873490968FEF755F8064613
:10221000724801683046FDF7F7FF70490860714960
:1022200048686C490968FEF747F806466B484168FC
:102230003046FDF7E9FF694948606A4988686549A1
:102240000968FEF739F80646644881683046FDF7AC
:10225000DBFF624988606349C8685E490968FEF728
:102260002BF806465D48C1683046FDF7CDFF5B4957
:10227000C860594801682846FEF718F85B490860AD
:102280005B480078FEF719FA064654480168304664
:10229000FEF712F85749086055480078FEF70DFA26
:1022A00006464E4881683046FEF706F852490860F7
:1022B0004F480078FEF701FA07464E480168384655
:1022C000FDF7FAFF06464D4801683046FDF79CFFD2
:1022D0004B4908600846016846480068FEF71EF84A
:1022E000484908604648016843480068FEF716F808
:1022F000454908603F480068444908603C48007808
:10230000FEF7DBF90646354841683046FDF7D4FF55
:102310003F4908603D4801683A480068FDF7CCFF36
:1023200006462E4801683046FDF7C3FF2B4908607A
:102330003748016833480068FDF7BEFF0646274866
:1023400041683046FDF7B5FF244948602F480168D1
:102350002D480068FDF7B0FF0646204881683046EA
:10236000FDF7A7FF1D4988602948016826480068D5
:10237000FDF7A2FF06461948C1683046FDF799FFF0
:102380001649C860194801681E480068FDF794FFA7
:102390000646114801683046FDF736FF0E490860D1
:1023A0001248016818480068FDF786FF064608488D
:1023B00001683046FDF728FF0549086008460168B6
:1023C0002046FDF773FF13490860BDE8F081000067
:1023D000AC010020A401002090010020D0010020C9
:1023E00098010020180500209C010020B001002069
:1023F000A8010020B4010020B8010020A0010020A5
:10240000BC010020C0010020C4010020C801002040
:10241000CC010020940100202DE9F04180460F46B8
:1024200015461E463946404600F050FA002404E0A6
:10243000305D00F08BFA601CC4B2AC42F8DB781C53
:10244000C1B2404600F042FA2C4604E0305D00F094
:102450007DFA601CC4B2B4EB450FF7DBBDE8F08138
:102460002DE9F04788B004460D46904640212748A4
:10247000FFF7E3FA802C01DA402D03DB002008B0DF
:10248000BDE8F08798F8006098F80190802E1BDD79
:10249000B9F1800F18DD04F11000802803DC05F18C
:1024A0001000402801DD0020E9E7A9F1A100A6F114
:1024B000A101C1EB011202EB411100EB410000212F
:1024C00001EB401A102710E004F10800802803DC1B
:1024D00005F11000402801DD0020D0E7A6F1200022
:1024E0004FF4014101EB001A08277A005146684673
:1024F00000F04AFF6B463A4629462046FFF78CFF1C
:1025000040210248FFF79BFA0120B8E70010014084
:1025100010B5044654B94FF480610F48FFF78DFAA7
:102520004FF400610C48FFF788FA14E0012C08D141
:10253000A1020948FFF783FAE1020748FFF77DFA95
:1025400009E0022C07D161020348FFF776FAA102E5
:102550000148FFF774FA10BD0010014010B50446A1
:1025600054B94FF480510F48FFF767FA4FF4005108
:102570000C48FFF762FA14E0012C08D12103094846
:10258000FFF75DFA61030748FFF757FA09E0022CED
:1025900007D1E1020348FFF750FA21030148FFF792
:1025A0004EFA10BD0010014010B5022000F010F8E6
:1025B000032000F021F8002000F014F8002000F0C3
:1025C00037F8002000F02BF8002000F01FF810BDB5
:1025D00038B50446032302226B21D0200094FFF774
:1025E00036FD38BD38B50446022304221C21D02014
:1025F0000094FFF72CFD38BD38B5044602230422B1
:102600001B21D0200094FFF722FD38BD10B50446F1
:10261000234601223721D020FFF7F9FC10BD10B569
:102620000446234605226A21D020FFF7F0FC10BDA6
:1026300010B50446234606226B21D020FFF7E7FCA5
:1026400010BD00001FB50121084600F04FFD01211B
:10265000082000F04BFD2020ADF80C0048208DF83C
:102660000F0003A91148FFF73DF905210120FFF7ED
:1026700019F92020019000208DF808000C208DF819
:10268000090001208DF80A0001A8FFF779F817204A
:102690008DF8000000208DF801008DF80200012067
:1026A0008DF80300684600F003F81FBD000C0140E0
:1026B00070B5002100230F22C47804B3154C2468A0
:1026C00004F4E064C4F5E064210AC1F10403CA40E3
:1026D000447804FA03F184781440214309010E4C34
:1026E0000678A155047804F01F050124AC40057854
:1026F0006D11AD0005F1E025C5F8004109E0047851
:1027000004F01F050124AC40044D0678761145F80D
:10271000264070BD0CED00E000E400E080E100E048
:1027200002490143024A1160704700000000FA05A7
:102730000CED00E010B5002000F002F810BD000024
:1027400070B5064640211148FFF777F9002415E0DF
:1027500004F1B001C8B200F0CDF8012000F0CAF8D1
:10276000102000F0C7F8002504E0304600F0EEF835
:10277000681CC5B2802DF8DB601CC4B2082CE7DBF6
:1027800040210248FFF75BF970BD000000100140D6
:1027900008B50121082000F0A9FC4FF42040ADF855
:1027A000000010208DF8030003208DF80200694618
:1027B0004448FFF797F84FF420414248FFF73FF9AC
:1027C0000121102000F092FCC020ADF80000102084
:1027D0008DF8030003208DF8020069463A48FFF7A0
:1027E00081F8C0213848FFF72AF9642000F028FB5F
:1027F00040213548FFF721F9AE2000F07BF8AE20EC
:1028000000F078F8002000F075F8102000F072F861
:10281000402000F06FF8812000F06CF8CF2000F02D
:1028200069F8A12000F066F8C82000F063F8A6203F
:1028300000F060F8A82000F05DF83F2000F05AF8A2
:10284000D32000F057F8002000F054F8D52000F015
:1028500051F8802000F04EF8D92000F04BF8F1201C
:1028600000F048F8DA2000F045F8122000F042F8B5
:10287000DB2000F03FF8402000F03CF8202000F082
:1028800039F8022000F036F88D2000F033F81420DB
:1028900000F030F8A42000F02DF8A62000F02AF86F
:1028A000AF2000F027F80020FFF74AFF002108467C
:1028B00000F00CF840210448FFF7C1F8FEF7C2FF12
:1028C00008BD0000000C01400010014070B5044636
:1028D0000D4605F1B001C8B200F00CF8102141EA34
:1028E000141000F007F804F00F0141F0010000F0AF
:1028F00001F870BD70B5054680211248FFF79DF8BC
:1029000000241BE005FA04F000F0800028B14FF429
:1029100000410D48FFF793F804E04FF400410A48E6
:10292000FFF78BF84FF400510748FFF786F84FF494
:1029300000510548FFF783F8601CC4B2082CE1DBA6
:1029400070BD000000100140000C014070B505464C
:1029500080211248FFF773F800241BE005FA04F009
:1029600000F0800028B14FF400410D48FFF767F8F0
:1029700004E04FF400410A48FFF75FF84FF40051BC
:102980000748FFF75AF84FF400510548FFF757F88A
:10299000601CC4B2082CE1DB70BD000000100140D7
:1029A000000C01400146074A04E0126A8A4201D144
:1029B00001207047106A0028F7D11162086200BF39
:1029C000F7E700002C02002010B52A4C51E0206AE5
:1029D00000B910BD246A607C042800D049E0E06999
:1029E00018B1E069401EE06142E0207C012808D176
:1029F000E06808B1E068804707202074A069E061C2
:102A000036E0207C072806D1606808B160688047FE
:102A1000A069E0612CE0207C022808D1A06808B100
:102A2000A068804705202074A069E06120E0207C38
:102A3000032808D1206808B1206880470620207448
:102A4000A069E06114E0207C042808D1E06808B1A6
:102A5000E068804706202074A069E06108E0207CDF
:102A6000052805D1206808B120688047A069E06189
:102A700000BFACE72C02002010B52D4C2D4800788B
:102A800000F0010000B110BD51E0206A00B9FAE782
:102A9000246A607C062800D049E0E06918B1E0694A
:102AA000401EE06142E0207C012808D1E06808B1C6
:102AB000E068804707202074A069E06136E0207C50
:102AC000072806D1606808B160688047A069E061A6
:102AD0002CE0207C022808D1A06808B1A0688047BB
:102AE00005202074A069E06120E0207C032808D143
:102AF000206808B12068804706202074A069E06142
:102B000014E0207C042808D1E06808B1E068804720
:102B100006202074A069E06108E0207C052805D12A
:102B2000206808B120688047A069E06100BFACE779
:102B30002C020020980000202E4C5AE02E480078ED
:102B400000F0010000B154E0206A08B9294C4FE0C0
:102B5000246A607CFE2800D04BE0E06910B1E06997
:102B6000401EE061E069002842D1207C012808D1A4
:102B7000E06808B1E068804707202074A069E06140
:102B800036E0207C072806D1606808B1606880477D
:102B9000A069E0612CE0207C022808D1A06808B17F
:102BA000A068804705202074A069E06120E0207CB7
:102BB000032808D1206808B12068804706202074C7
:102BC000A069E06114E0207C042808D1E06808B125
:102BD000E068804706202074A069E06108E0207C5E
:102BE000052805D1206808B120688047A069E06108
:102BF00000BFA3E72C0200209800002010B5FFF7CB
:102C000099FD10BD2DE9FF5F94B0834614461D4623
:102C1000DDE922A9202109A8FDF7DEFA00200890AD
:102C2000002620208DF82400002213462046294645
:102C3000FDF7DEFD04D285F000452D208DF824003F
:102C400020462946FDF7A8FD13904846FDF74BFDA9
:102C500007463A460B460020494905F021FACDE9DE
:102C600004011398FDF73FFD074622462B46FDF76A
:102C700037FC4FF0C042434BCDE90001FDF78CFB20
:102C8000CDE90201DDE90423FDF72DFCCDE90601C4
:102C9000FDF782FD12902CE05046FDF724FD07461B
:102CA0003A460B460020364905F0FAF9CDE906010F
:102CB000FDF772FD119011991398B0FBF1F03030CF
:102CC000C1B2701C064609AA1154089848B909A84F
:102CD000805D302803D1202009A9885501E001201A
:102CE000089011991398B0FBF1F0139A00FB112092
:102CF00013905FEA0A00AAF1010101F0FF0ACBD1AB
:102D000009A8805D202802D1302009A98855B9F191
:102D1000000F2DD02E21701C064609AA115420E068
:102D20004846FDF7E0FC02460B46CDE906010020CF
:102D3000134905F0B5F90746FDF72EFD1190DDE9C1
:102D40001110B0FBF1F03030C1B2701C064609AA78
:102D50001154DDE91110B0FBF1F0129A00FB1120C3
:102D600012905FEA0900A9F1010101F0FF09D7D132
:102D700009AA5846159900F017F818B0BDE8F09F59
:102D800000002440C2253C3D10B54FF44070FFF7D1
:102D9000C7FC00F069FE00F005FF00F03DFF00F009
:102DA000CDFF00F047F810BD2DE9F04104460E4676
:102DB000154627464FF000081D48007808B1BDE8C9
:102DC000F08101201A4908704FF6FF7000EA4606AC
:102DD00000EA041424E0B8F1000F16D12878802806
:102DE00002DD4FF001081BE028780D2803D1B01C4C
:102DF00086B23C466D1CF1B2E0B22A46FFF730FBCA
:102E00006D1C04F1080084B20AE04FF00008F1B232
:102E1000E0B22A46FFF724FBAD1C04F1100084B297
:102E200028780028D7D10249087000BFC7E7000002
:102E3000A800002010B5FFF7ABFCFFF7DFFE10BDC8
:102E400070B504464FF0804000F0DEFF05460A48AA
:102E500006684FF47A70444300BF4FF0804000F0A2
:102E6000D3FF05490968891BC1EB01410844401B98
:102E7000A042F2D370BD0000A000002070B504464F
:102E80004FF0804000F0C0FF05460848066800BFCC
:102E90004FF0804000F0B8FF04490968891BC1EB7E
:102EA00001410844401BA042F2D370BDA0000020A5
:102EB0002DE9F04F8DB05D48D0F800B04FF0000A1A
:102EC0005B48007800287CD15846FDF77EFC04461C
:102ED00058480CC82046FDF75FFA564A03C25846C8
:102EE000FDF773FC064654480CC83046FDF7F5FA6A
:102EF00004460022514BFDF7F6FA514A03C25148ED
:102F00004F490CC803C9FDF7EEFACDE908014E4858
:102F100048490CC803C9FDF7E6FACDE90601584651
:102F2000FDF753FC804649480CC84046FDF7DBFAE4
:102F3000CDE9040146480CC80498FDF72DFA064671
:102F4000DDE90623FDF728FA0446DDE90823FDF74D
:102F500023FACDE90A01FDF700FC824633480068F8
:102F6000FDF733FC21F0004100224FF08043CDE912
:102F70000001FDF7B8FA8046364A374BFDF7B3FA41
:102F800006460022354BFDF720FB044602F006FE04
:102F9000CDE9040125480068FDF717FC21F0004148
:102FA000064600224FF08043FDF79DFA8046294AED
:102FB000294BFDF798FA04460022284BFDF705FB44
:102FC00000E029E0CDE9000102F0E8FDCDE90201D1
:102FD000DDE90423FDF787FACDE908015046FDF746
:102FE00071FBCDE90601DDE90823FDF7EEFACDE935
:102FF0000A01FDF7B2FB8246BAF5166F01DD4FF408
:10300000166ACAF51660514600F02AF85846FDF7D0
:10301000DCFB094A03C205E0002000F0E5F90020CE
:1030200000F010FA00200DB0BDE8F08F780100200C
:10303000F8000020E0000020F000002000408F4059
:10304000E8000020C0000020B8000020B0000020F0
:10305000C80000206E861BF0F921094000807640F0
:1030600070B504460D46002C01DA002404E0B4F5E6
:10307000166F01DD4FF41664002D01DA002504E01F
:10308000B5F5166F01DD4FF4166508480460084871
:103090000560012000F0A8F9022000F0D3F9A0B2E9
:1030A00000F0C6F9A8B200F0F3F970BDD800002016
:1030B000DC00002001460020034A506820F4404014
:1030C00008435060704700000010024029B1064AD2
:1030D000D2690243044BDA6104E0034AD2698243B5
:1030E000014BDA61704700000010024029B1064A26
:1030F00092690243044B9A6104E0034A9269824355
:10310000014B9A61704700000010024029B1064A45
:10311000D2680243044BDA6004E0034AD268824377
:10312000014BDA6070470000001002402DE9F04FBB
:103130008FB00CA889490DAB08AACDE900108849C9
:10314000884802F02DFF8548008800F48070002830
:103150007ED00898FDF7A8FA04464FF09D41FDF790
:10316000DDF8814908600998FDF79EFA04464FF0A2
:103170009D41FDF7D3F87D4908600A98FDF794FA60
:1031800004464FF09D41FDF7C9F8794908600B9856
:10319000FDF78AFA04464FF09D41FDF7BFF87549E7
:1031A0000860714801684FF08040FDF785F806908F
:1031B0006F4801680698FDF77FF882466B48016802
:1031C0004FF04040FDF778F806906A48016806988D
:1031D000FDF772F883465146FDF716F80790FDF7A4
:1031E000F4FA804602F0BCF906464FF06632624BB4
:1031F000FDF779F90446FDF72BFB604908605C4850
:1032000001684FF08040FDF757F803905848016877
:103210000398FDF751F88246544801684FF040404A
:10322000FDF74AF80390514801680398FDF744F808
:1032300083465146FDF73AF881464FF07E51FCF740
:10324000E3FF0446FDF7C1FACDE90401464800E07A
:1032500081E001684FF08040FDF72EF88346434837
:1032600001685846FDF728F88146414801684FF04B
:103270008040FDF721F883463E4801685846FDF737
:103280001BF882464946FCF7BFFF0446FDF79DFA4E
:103290000746DDE9042302F0ABFB4FF06632364B04
:1032A000CDE90601FDF71FF90546FDF7D1FA3449CE
:1032B0000860304801680068FCF7FEFF03902C4866
:1032C00001680068FCF7F8FF029028480168006870
:1032D000FCF7F2FF8346244801680068FCF7ECFF26
:1032E00059460190FCF790FF82460299FCF7DEFFF9
:1032F00081460399FCF7DAFF0446FDF766FACDE94B
:1033000004011C48016818480068FCF7D5FF824694
:103310001748016815480068FCF7CEFF8346514600
:10332000FCF772FF81464FF08041FCF7C5FF044671
:10333000FDF74BFA0746DDE9042302F059FB4FF095
:1033400066320D4BCDE90601FDF7CDF80546FDF7D8
:103350007FFA0C4908600FB0BDE8F08F080100202B
:1033600002010020FC0000201001002014010020B8
:10337000180100201C01002066A64C400C01002012
:10338000700100207401002070B505460C461646F9
:1033900040211348FEF753FB0020FEF747FA0320B5
:1033A00001F030F8C4F3074001F02CF8C4F3072013
:1033B00001F028F8E0B201F025F804E0A52001F0C2
:1033C00021F828706D1C3000A6F101018EB2F5D1F4
:1033D0000120FEF72BFA40210148FEF72EFB70BDBD
:1033E000001001407047000010B5044644B9202188
:1033F0000E48FEF722FB10210C48FEF71EFB14E0DE
:10340000012C08D120210948FEF717FB102107489D
:10341000FEF715FB09E0022C07D120210348FEF737
:103420000EFB10210148FEF708FB10BD0010014003
:1034300010B504462146024800F0B9FD10BD000059
:103440000004004010B5044654B94FF400710F4811
:10345000FEF7F3FA4FF480710C48FEF7EEFA14E031
:10346000012C08D161020948FEF7E7FA210207485A
:10347000FEF7E5FA09E0022C07D121020348FEF726
:10348000DEFAE1010148FEF7D8FA10BD0010014054
:1034900010B504462146024800F089FD10BD000029
:1034A000002C014010B500F001F810BD0CB5002053
:1034B000019000903348006840F480303149086042
:1034C00000BF3048006800F4003000900198401CB4
:1034D0000190009818B90198B0F5A06FF1D1294872
:1034E000006800F4003010B10120009001E00020DD
:1034F00000900098012843D12348006840F0100054
:10350000214908600846006820F00300086008466A
:10351000006840F0020008601A4840681949486095
:103520000846406848600846406840F4806048604B
:103530000846406820F47C1048600846406840F423
:10354000E81048600846006840F08070086000BFDE
:103550000C48006800F000700028F9D00948406865
:1035600020F00300074948600846406840F0020028
:10357000486000BF0348406800F00C000828F9D1FB
:103580000CBD0000001002400020024010B5FFF703
:1035900029FF0F480078012803D100F0B3F8044652
:1035A00000E0002422460B4801680B480068FDF744
:1035B000B5FF0A48006840B909480078C043084987
:1035C000087040F2DE30FFF73BFC002010BD000029
:1035D000050000207C010020780100201881214294
:1035E0000100002070B504460026B4F5166F02DD18
:1035F0004FF4166403E014F5166F00DA094C002C42
:1036000001DD022602E0002C00DA00263046FFF73A
:1036100019FF251E01DB294600E0694288B2FFF749
:1036200037FF70BDA0F6FFFF70B504460026B4F565
:10363000166F02DD4FF4166403E014F5166F00DA1E
:10364000094C002C01DD002602E0002C00DA0126E6
:103650003046FFF7C9FE251E01DB294600E069421E
:1036600088B2FFF7E5FE70BDA0F6FFFF2DE9FC472D
:10367000FEF750FD1FA203210020FFF795FB0A2152
:103680000020FEF72FFA82465046FDF72CF88046C0
:1036900000221A4BFCF799FF06464FF06632184B92
:1036A000FCF721FF04460220009022460B4603212E
:1036B00001900846FFF7A6FAFEF7A0F90020FDF7F3
:1036C000E7FD0020FDF7D8FE012140F65F1000F075
:1036D000D3FA012140F65F1000F0F6F9FEF754FB33
:1036E000FEF762FFFDF7AAFFFEF7ACFFFEF7AAF9AF
:1036F000BDE8FC87B5E7D1B9A3BA00000000B0402F
:1037000066660A407FB50024002002900390D348EB
:103710000068012811D1D248B0F82211BD30405CB8
:103720000121A1400843C1B2CD48B0F82221BD30EB
:10373000815401208DF808000FE0C948B0F822112B
:10374000BD30405C0121A1408843C549B1F8222128
:10375000BD31885400208DF80800C048001D006865
:10376000012810D1BE48B0F82211BD30415C0120C3
:10377000A0400143BA48B0F82221BD308154012055
:103780008DF809000FE0B648B0F82211BD30405C5A
:103790000121A1408843B249B1F82221BD318854AA
:1037A00000208DF80900AD4808300068012810D1CC
:1037B000AB48B0F82211BD30415C0120A04001436C
:1037C000A748B0F82221BD30815401208DF80A00AD
:1037D00010E0A348B0F82211BD30415C0120A040A8
:1037E00021EA00009E49B1F82221BD318854002011
:1037F0008DF80A0099480C300068012811D19848CA
:10380000B0F82211BD30405C0121A1400843C1B293
:103810009348B0F82221BD30815401208DF80B006F
:103820000FE08F48B0F82211BD30405C0121A1406B
:1038300088438B49B1F82221BD31885400208DF88E
:103840000B0088480068012811D18548B0F8221182
:10385000BD30405C0121A1400843C1B28048B0F8AE
:103860002221BD30815401208DF80C000FE07C48EE
:10387000B0F82211BD30405C0121A1408843784955
:10388000B1F82221BD31885400208DF80C00754814
:103890000C300068012810D17148B0F82211BD30F9
:1038A000415C0120A04001436D48B0F82221BD30A9
:1038B000815401208DF80D0010E06948B0F8221104
:1038C000BD30415C0120A04021EA00006449B1F80C
:1038D0002221BD31885400208DF80D006148103040
:1038E0000068012810D15E48B0F82211BD30415C5B
:1038F0000120A04001435A48B0F82221BD30815434
:1039000001208DF80E0010E05548B0F82211BD30AE
:10391000415C0120A04021EA00005149B1F8222178
:10392000BD31885400208DF80E004E48001F0068FD
:10393000012810D14A48B0F82211BD30415C012065
:10394000A04001434648B0F82221BD3081540120F7
:103950008DF80F000FE04248B0F82211BD30405CF6
:103960000121A14088433E49B1F82221BD3188544C
:1039700000208DF80F009DF80800FCF7B4FE054606
:103980000B46002001212A46CDE90010FFF73AF945
:103990009DF80900FCF7A7FE05460B460020012113
:1039A0002A46CDE900100846FFF72CF99DF80A00D9
:1039B000FCF799FE05460B46002001212A46CDE979
:1039C00000100220FFF71EF99DF80B00FCF78BFE9C
:1039D00005460B46002001212A46CDE900100320B0
:1039E000FFF710F99DF80C00FCF77DFE05460B462D
:1039F000002001212A46CDE900100420FFF702F93A
:103A00009DF80D00FCF76FFE05460B4600200121D6
:103A10002A46CDE900100520FFF7F4F89DF80E00C6
:103A2000FCF761FE05460B46002001212A46CDE940
:103A300000100620FFF7E6F89DF80F00FCF753FE94
:103A400005460B46002001212A46CDE9001007203B
:103A5000FFF7D8F8002004B070BD0000000122423A
:103A6000500200200401214210B51348006840F0C4
:103A700001001149086008464068104908400E4995
:103A80004860084600680E4908400B49086008462F
:103A9000006820F4802008600846406820F4FE009A
:103AA00048604FF41F008860FFF7FCFC4FF0006097
:103AB0000449086010BD0000001002400000FFF83B
:103AC000FFFFF6FE08ED00E030B589B005460C4674
:103AD0000121C802FFF70AFB01210420FFF706FBC2
:103AE0004FF44070ADF8200018208DF8230003201B
:103AF0008DF8220008A92248FDF7F4FEADF8185011
:103B0000ADF814400020ADF81A00ADF8160005A974
:103B10001C4800F04FFA6020ADF804000120ADF819
:103B200006000020ADF80A00ADF80C0001A9154808
:103B300000F088F90821134800F0D0F9012111485C
:103B400000F053F90120ADF806000020ADF80A009E
:103B5000ADF80C0001A90B4800F0CAF9082109488A
:103B600000F018FA0121074800F024F90121054866
:103B700000F03BF90121034800F02BF909B030BDFA
:103B800000080140002C014010B50121880700F019
:103B90001DF903480068401C0149086010BD000081
:103BA000A00000201FB501210846FFF78FFA47202B
:103BB000ADF804004FF6FE70ADF808000020ADF837
:103BC0000A00ADF8060001A94FF0804000F0F2F9BC
:103BD00001221146900700F02BF91C208DF80000FF
:103BE00001208DF8010000208DF8020001208DF8E1
:103BF00003006846FEF75CFD0121880700F0E9F844
:103C00001FBD000010B50121024800F0DFF8FEF7EB
:103C1000DBFE10BD000400401FB501210220FFF7AC
:103C200055FA4720ADF8040040F2E730ADF808003F
:103C30000020ADF80A00ADF8060001A90D4800F01B
:103C4000B9F9012211460B4800F0F2F81D208DF859
:103C5000000004208DF8010000208DF802000120F2
:103C60008DF803006846FEF723FD0121014800F0AE
:103C7000B0F81FBD0004004030B589B005460C46C1
:103C800001210420FFF732FAC020ADF8040018200B
:103C90008DF8070003208DF8060001A92048FDF7E4
:103CA00021FE01210220FFF711FAADF81C50ADF8FA
:103CB00018400020ADF81E00ADF81A0006A91948FA
:103CC00000F078F96020ADF808000120ADF80A0096
:103CD0000020ADF80E00ADF8100002A9114800F068
:103CE000B1F808210F4800F0F9F80120ADF80A00FA
:103CF0000020ADF80E00ADF8100002A9094800F050
:103D0000F7F80821074800F045F90121054800F0BF
:103D100051F80121034800F05CF809B030BD000003
:103D2000000801400004004010B50121024800F0E5
:103D30004DF8FEF7A1FE10BD000800401FB501219F
:103D40000420FFF7C3F94720ADF8040040F2E73044
:103D5000ADF808000020ADF80A00ADF8060001A992
:103D60000D4800F027F9012211460B4800F060F8D9
:103D70001E208DF8000006208DF8010000208DF82F
:103D8000020001208DF803006846FEF791FC012136
:103D9000014800F01EF81FBD0008004010B50121C9
:103DA000034800F034F80121014800F00FF810BD7D
:103DB0000014004021B1028842F08002028004E039
:103DC00002884FF67F731A4002807047CA4302820E
:103DD000704721B1028842F00102028004E00288AB
:103DE0004FF6FE731A400280704731B1B0F844209C
:103DF00042F40042A0F8442005E0B0F84420C2F3A9
:103E00000E02A0F8442070470146888C704730B5F8
:103E10000246002000230024158A05EA0103958943
:103E200005EA010413B10CB1012000E0002030BD0F
:103E30001AB183890B43838102E083898B43838199
:103E40007047000070B5002400220023058C4FF657
:103E5000FE7635400584028C8388048B4FF68F757F
:103E60002C40B51E2C400D882C43751E2A400D8910
:103E70002A434D882A43144DA8420BD0134DA84223
:103E800008D0134DA84205D0124DA84202D0124DC1
:103E9000A84213D14FF6F7752A404D892A434FF6B1
:103EA000FB752A408D882A434FF6FF652B404FF65D
:103EB000FF552B408D892B43CD892B438380048371
:103EC000CD888586028470BD002C014000340140FD
:103ED0000040014000440140004801400A460021E2
:103EE000018B4FF6F77319401143018370470000AF
:103EF00070B5002400220023058C4FF6EF76354084
:103F00000584028C8388048B48F6FF752C404FF69D
:103F1000FF452C400D884FF6FF7606EA05252C4319
:103F20004FF6DF752A400D8906EA05152A434D88AC
:103F300006EA05152A43154DA84202D0144DA842A1
:103F40001DD14FF67F752A404D894FF6FF7606EA60
:103F500005152A434FF6BF752A408D8806EA0515D8
:103F60002A434FF6FF352B404FF2FF752B408D89CA
:103F700006EA85052B43CD8906EA85052B43838018
:103F80000483CD880587028470BD0000002C0140A9
:103F9000003401400A460021018B4FF2FF731940A3
:103FA0004FF6FF7303EA0223194301837047018729
:103FB00070470000002202881D4B98420ED01D4B16
:103FC00098420BD0B0F1804F08D01B4B984205D0DF
:103FD0001A4B984202D01A4B984204D14FF68F7375
:103FE0001A404B881A43174B984207D0164B9842F9
:103FF00004D04FF6FF431A40CB881A4302808B88C7
:1040000083850B8803850A4B98420BD0094B984255
:1040100008D00E4B984205D00D4B984202D00D4B64
:10402000984201D10B7A03860123838270470000F6
:10403000002C014000340140000400400008004012
:10404000000C0040001000400014004000400140FF
:1040500000440140004801402DE9F0414FF00008C4
:10406000002540F22551654800F006F900283CD0B3
:10407000624800F02BF904467B2C04D101206049F2
:104080000870BDE8F0817D2C03D100205C490870E8
:10409000F7E7232C03D1032059490870F1E758486A
:1040A0000078012822D1502C02D15649087016E020
:1040B000492C03D102205349087010E0442C03D14D
:1040C0000320504908700AE0552C03D104204D49C3
:1040D000087004E0452C02D105204A4908700020F0
:1040E0004949088002204649087084E04448007825
:1040F000022812D14549444A12888C54424800880B
:10410000401C4149088008460088642190FBF1F278
:1041100001FB12003C4908806DE039480078032813
:1041200069D13BA000F0EEF9384801F021FD0646C8
:10413000FCF78EFB80463348007801280AD14046C0
:10414000FCF743FB354A03C234480CC834A000F0E6
:10415000D9F93AE02B48007802280AD14046FCF70A
:1041600034FB324A03C231480CC831A000F0CAF90E
:104170002BE02448007803280AD14046FCF725FBB1
:104180002E4A03C22D480CC82DA000F0BBF91CE03C
:104190001C48007804280AD14046FCF716FB2B4A3D
:1041A00003C22A480CC82AA000F0ACF90DE015485B
:1041B0000078052809D14046FCF707FB274A03C2CF
:1041C00026480CC826A000F09DF928A000F09AF916
:1041D0000E4928A000F096F924A000F093F90025DC
:1041E00004E0002009494855681C85B2642DF8DBBD
:1041F00004200349087000BF43E70000004400406A
:104200006C010020660100206A0100205404002097
:10421000C9E8D6C3B3C9B9A6A3A10A00B00000205B
:104220005B5F6B505D3A25302E346600B80000208D
:104230005B5F6B495D3A25302E346600C00000207C
:104240005B5F6B445D3A25302E346600C800002069
:104250005B5F75305D3A25302E346600D00000205B
:104260005B5F65545D3A25302E346600200A0A0AE9
:104270000A0A00002573000070B5024600240023DE
:104280000025002040F66A16B14200D100BFC1F3FC
:10429000421501F01F03012606FA03F3012D02D196
:1042A0009689334006E0022D02D1168A334001E0A0
:1042B000968A33400C12012606FA04F4168834401C
:1042C00013B10CB1012000E0002070BD01468888C8
:1042D000C0F30800704710B5FEF7EAFD002010BDDE
:1042E00010B5FFF7C3F9002010BD00002DE9FC4711
:1042F00004460D46904684F000463146002003F007
:1043000017FE394908604FF07E512846FBF7D4FF6D
:104310000746354801683548FBF776FF8146394640
:10432000FBF772FF0646FCF7EBF9314908604FF0E6
:104330007E512846FBF7C0FF81462E492046FBF7F9
:10434000BBFF82462C49FBF75FFF07464946FBF758
:10435000ADFF0646FCF7D4F92849086024480068F8
:10436000B0F5166F03DD4FF4166021490860204850
:10437000006810F5166F02DA21481D4908601F48D1
:104380000068B0F5166F03DD4FF416601B49086036
:104390001A48006810F5166F02DA194817490860C4
:1043A0004FF080412046FCF76FFA03D210480068B6
:1043B000FFF73AF94FF040412046FCF76FFA03D27D
:1043C0000E480068FFF70EF90C480068FCF77AF910
:1043D00006460B46002005213246CDE9001001219A
:1043E000FEF710FCBDE8FC8730000020000016C47A
:1043F00034000020000070420000614438000020BA
:10440000A0F6FFFF70B5044600250120FDF702FA73
:10441000002627E00020FDF7FDF90220FEF72EFD23
:1044200004F08000802803D10120FDF72FFA02E07C
:104430000020FDF72BFA6006040E0220FEF71EFD99
:104440000120FDF7E7F90220FEF718FD6806050ECA
:104450004FF480410548FDF7E7FA08B1681CC5B282
:10446000701CC6B2082ED5DB284670BD000C01407A
:104470002DE9F04F8BB083468A465046FCF7A5F9EC
:1044800080461C4A1C4BFCF72EF8CDE902011B4864
:104490000068FCF79AF9CDE90001DDE90223FBF79A
:1044A0007BFF04460D46164801684FF07E50FBF72F
:1044B000FDFE8046FCF789F9064622462B46FCF7AE
:1044C00012F8CDE906010E4801685846FBF7F4FEE4
:1044D0000446FCF77AF9CDE90401DDE90623FBF790
:1044E0005BFFCDE90801FCF7B3F9044908600BB0A4
:1044F000BDE8F08F7B14AE47E17A743F9001002055
:104500008C0100200FB4054B10B503A9044A029892
:1045100000F036FC10BC5DF814FB00005168000888
:10452000600100200FB4084B10B504A902AA03983B
:1045300000F026FC044602A9002000F0B8FF204647
:1045400010BC5DF814FB0000AF540008490050EAAD
:10455000C12018BF04204A0D18BF40F0010040F2EE
:10456000FF72B2EB515F08BF40F00200012808BFA4
:10457000052070472DE9F74F144694B00021C4E997
:1045800002111599079121F00045C9498D4206DCB9
:104590001599C4E9000117B00020BDE8F08FC549A6
:1045A000DFF814A3A9423CDD0799C44E0029C44F8B
:1045B000C44A1599534619DDFBF78FFF554506D0C0
:1045C000C14AC24BFBF789FFC4E900010AE04FF082
:1045D000D352BE4BFBF781FF32463B46FBF77DFFD4
:1045E000C4E9000117B00120BDE8F08FFBF7D4FE4D
:1045F000554506D0B44AB54BFBF7CEFEC4E90001E1
:104600000AE04FF0D352B14BFBF7C6FE32463B46B1
:10461000FBF7C2FEC4E9000117B04FF0FF30BDE860
:10462000F08FAB49A942159978DB21F00041834610
:104630008846A84AA84BFBF756FF0022A74BFBF77A
:10464000ABFEFCF78AF80990FCF73CF806460F46EB
:104650009C4A5346FBF747FF43465A46FBF740FF49
:1046600080468A46984A994B30463946FBF73BFFCD
:104670002A0D01250B9242465346FBF731FF032DCD
:10468000C4E9000139D00B98C1F30A51401A05EB77
:1046900045111139814230DA9148C346784400EB24
:1046A0000510CDF80CA00C90D0E900233046394617
:1046B000FBF719FF02460B460491069058460399F2
:1046C000FBF70BFF80468A4602460B465846039985
:1046D000FBF703FF049B069AFBF7FFFE83460C984B
:1046E00003913946D0E902233046FBF7FCFE5A46D7
:1046F000039BFBF7F2FE6D1CBDE707980028A2BFE5
:10470000099817B0BDE8F08F616881F000416160E1
:10471000099817B04042BDE8F08FFFE7844615982E
:10472000C1F31301C0F30A50A0F2F5304FEA60184C
:1047300000F01F06C6F1200013900020069007909D
:1047400041F4801E05206D4676B1664A08EB0001F3
:104750007A4452F8213002EB8101B3404A68139940
:1047600022FA01F1194305E05F4908EB00027944A0
:1047700051F82210A1FB0E27A1FB0C131A449A42F8
:1047800034BF0123002303EB070A05EB8003D3E9C1
:1047900001B70F448F4234BF0121002193448B4461
:1047A00011B1934502D903E0934501D2012100E004
:1047B0000021C3E901B7514445F82010011EA0F1C2
:1047C0000100C1DC0298059F00F10050800F12909B
:1047D0000298DDE903568000FBF774FF8346284604
:1047E0000D91FBF780FF6FF01D02FCF7BBF9CDE9DF
:1047F0000E013046FBF777FF6FF03D02FCF7B2F990
:1048000080468A463846FBF76EFF6FF05D02FCF784
:10481000A9F90746424653461191FBF7BDFDDDE974
:104820000E23FBF7B9FD5A460D9BFBF7B5FD00259E
:104830000E465A4628460D9BFBF74FFEDDE90E2338
:10484000FBF74BFE42465346FBF747FE3A46119BA9
:10485000FBF746FEDFF898A0244A5346FBF743FED9
:1048600007468846234A244B31462846FBF73BFE41
:104870003A464346FBF790FD074688464FF0A8426C
:10488000534631462846FBF72EFE3A464346FBF791
:1048900083FD159A12F0004F04D0129A81F0004166
:1048A00052421292C4E90001129817B0BDE8F08F8D
:1048B000FB21E93F7CD90240FB21F93F7370032EB5
:1048C0008A19A33B000040543163621A61B4D03DA1
:1048D000FB21394183C8C96D305FE43F0000E03FF0
:1048E000185300009452000076520000182D4454D2
:1048F000FB21F93D3326A611460B113C2DE9FF4D56
:1049000021F0004807460C46B8F1795F08DAFBF75A
:1049100024FF002801BF0020324904B0BDE8F08D1B
:104920003A46234610461946FBF7DDFD054602468A
:104930002D480E460B460621784400F05DF82A46C5
:104940003346FBF7D0FDDDE9022382468B4638462D
:104950002146FBF7C8FD04460F4652465B462846F3
:104960003146FBF7C0FD22463B46FBF7B6FD074646
:104970008A464FF0FF3228463146FCF7F3F81B4ACF
:1049800090450ADA3A465346FBF7A7FD04B00022E9
:10499000BDE8F04D134BFBF7A3BD154A4245A8BF38
:1049A000A8F500154FF00004B8BF124D22462B4663
:1049B000FBF793FD0646884622462B460020094910
:1049C000FBF78BFD04460D463A46534630464146BA
:1049D000FBF783FD04B022462B46BDE8F04DFBF704
:1049E0007FBD00000000F03F445000003333D33F50
:1049F0000000E93F0000D23F2DE9F0414F1E00EBDF
:104A0000C7010446D1E9000115461E4637F00602EB
:104A10000DD02A463346FBF766FD7F1E04EBC70325
:104A2000D3E90023FBF7B8FC37F00602F1D1022FDF
:104A300025D0042F13D0062F18BFBDE8F0812A46D9
:104A40003346FBF750FDD4E90A23FBF7A5FC2A46C1
:104A50003346FBF748FDD4E90823FBF79DFC2A46C3
:104A60003346FBF740FDD4E90623FBF795FC2A46C5
:104A70003346FBF738FDD4E90423FBF78DFC2A46C7
:104A80003346FBF730FDD4E90223FBF785FC2A46C9
:104A90003346FBF728FDD4E90023BDE8F041FBF7DE
:104AA0007BBC00002DE9FF4D054621F0004084B09D
:104AB0000C46B0F1795F0BDA2846FFF747FD042872
:104AC00008BF00F07FF8284608B02146BDE8F08D09
:104AD0002A460B461046FBF706FD06460F462A46B9
:104AE0002346FBF700FD804626488A4632463B4671
:104AF00005217844FFF780FF83461098029160B348
:104B0000214A224B40465146FBF7EDFCCDE900011E
:104B10005A4640465146029BFBF7E5FC82468846D2
:104B2000DDE906014FF0FF32FCF71CF85246434620
:104B3000FBF7D3FC32463B46FBF7D5FCDDE9062309
:104B4000FBF7CBFCDDE90023FBF7C7FC08B02A46E6
:104B50002346BDE8F04DFBF7C3BC0B465A46304632
:104B60003946FBF7C0FC084A084BFBF715FC4246E8
:104B70005346FBF7B8FC08B02A462346BDE8F04D83
:104B8000FBF70ABC8A4F0000495555555555C5BF1E
:104B90000022134610460149FBF717BD0000F03F05
:104BA0000122FBF7DFBFFBF7F7BB002213461046DD
:104BB0001146FBF70ABD40F2013200204FF0E04100
:104BC000FBF7D0BF024A00201107FBF7CBBF000064
:104BD00001FDFFFF0148006870470000E001002070
:104BE00002E008C8121F08C1002AFAD170477047B6
:104BF000002001E001C1121F002AFBD17047000014
:104C00000149086070470000E00100202DE9FF5FC6
:104C1000DDE90220010DDDF838B0024318D044F67A
:104C20001050A1F2FF3141430D140F98012820D0FC
:104C3000A5EB0B00401C5FEA000A4FF00004474E52
:104C4000DFF81C91A046504616D5CAF1000728E0AF
:104C50000F98012443A2012808D0002100980F9B3F
:104C6000C0E90021C0E90243BDE8FF9F6FEA0B01E4
:104C7000F4E7CBF10000DEE7074612E0F80707D0C3
:104C80002246334640464946FBF72DFC804689467E
:104C90002246334610461946FBF725FC04460E46CD
:104CA0007F10002FEAD1DDE90201BAF1000F424680
:104CB0004B4602DAFBF717FC01E0FBF786FC0446E3
:104CC0000E460022284BFBF7ABFD03D84FF0FF3018
:104CD000014607E00022254B20463146FBF75CFBEE
:104CE000FBF757FF102409E0002C0ADB0A220023FF
:104CF000FBF7F4FD019B30321A55641E50EA0102A5
:104D0000F2D1641C019AC4F1110314440F9A012AD0
:104D100003D0012208430DD10AE0084304D000204B
:104D20004FF0110B0F9080E7A3EB0B056D1E0DE00C
:104D30005B4504DD4FF0000205F1010504E003DAF4
:104D40004FF00002A5F10105002AECD000980F9960
:104D5000C0E90231C0E9004586E7000000002440B8
:104D60000000F03F300000000000F0430000E03F92
:104D700030380A2801D20120704700207047000017
:104D80002DE9FF4F95B09B468946064600250FE268
:104D9000252877D100242746F84A0121059400E010
:104DA000044316F8013F203B01FA03F01042F7D10B
:104DB00030782A2811D06FF02F033078A0F130021C
:104DC000092A16D8059A44F0020402EB820203EB8A
:104DD00042021044761C0590EFE759F8042B059227
:104DE000002A03DA504244F40054059044F00204CF
:104DF000761C30782E2816D116F8010F44F00404E2
:104E00002A280DD06FF02F023078A0F13003092B43
:104E100009D807EB870302EB4303C718761CF3E7B7
:104E200059F8047B761C30786C280FD006DC4C28AF
:104E300017D068280DD06A2814D104E0742810D047
:104E40007A280FD10DE044F400140AE044F48014F1
:104E500001E044F440147278824202D104F58014D7
:104E6000761C761C307866280BD013DC582877D057
:104E700009DC002875D04528F6D04628F4D047280C
:104E80001AD19DE118E0632835D0642879D06528CF
:104E900012D195E1702873D008DC6728F1D0692819
:104EA0006FD06E280DD06F2806D1B5E073282CD0B6
:104EB000752875D0782874D05A46179990476D1C7C
:104EC00075E1C4F30250022809D003280DD0D9F8A7
:104ED000001004280DD00D6009F1040967E1D9F82C
:104EE0000010EA17C1E90052F6E7D9F800100D806A
:104EF000F2E70D70F0E719F8041B8DF800100020A0
:104F00008DF80100EA46012003E059F804AB4FF0A8
:104F1000FF3061074FF0000102D40DE008F10101FC
:104F20008846B9420FDA8045F8DB1AF808100029E4
:104F3000F4D108E008F1010188468142FADB1AF851
:104F400008100029F6D105985B46A0EB080721461A
:104F50003846179A00F094FA284400EB080507E059
:104F60004DE029E10DE01AF8010B5A4617999047D8
:104F7000B8F10108F7D25B4621463846179A13E18B
:104F800042E00A220092C4F302524FF0000A022AC1
:104F900008D059F804CB032A4FEAEC710AD00DE08F
:104FA00029E02AE009F1070121F00702F2E802C135
:104FB000914609E00FFA8CFC4FEAEC71042A03D108
:104FC0004FFA8CFC4FEAEC71002907DA0A460021FF
:104FD000DCF1000C61EB02012D2202E0220504D578
:104FE0002B228DF80420012203E0E20701D02022C9
:104FF000F7E7904659E00A2102E010220DE0102167
:105000004FF0000A00910BE010224FF0000A44F02C
:1050100004040827009203E008224FF0000A0092DF
:10502000C4F30252022A05D059F804CB0021032A06
:1050300008D009E009F1070121F00702F2E802C1F6
:10504000914605E01FFA8CFC042A01D10CF0FF0CFC
:105050004FF00008220728D5702806D0009B83F067
:10506000100353EA0A0305D00EE040228DF8042015
:10507000012208E05CEA010206D030228DF804200B
:105080008DF8050002229046009B83F0080353EA46
:105090000A030AD15CEA010201D1620705D5302278
:1050A0008DF804204FF001087F1E582804D034A04A
:1050B00003900EA802900DE036A0F9E75346604633
:1050C000009AFBF70BFC84460398825C0298401E12
:1050D000029002705CEA0100F0D1029806A9081A59
:1050E00000F1200A600702D524F4803400E0012793
:1050F000574502DDA7EB0A0000E0002000EB0A01A3
:10510000009005984144401A0590E00306D45B46A0
:105110002146179A059800F0B3F90544002706E0E8
:1051200001A85A46C05D179990476D1C7F1C4745E2
:10513000F6DBE0030CD55B462146179A059800F094
:105140009FF9054404E030205A46179990476D1C9A
:105150000099481E00900029F5DC08E002980299A9
:105160005A460078491C0291179990476D1CBAF174
:105170000001AAF1010AF1DC65E100000928010043
:1051800030313233343536373839616263646566BD
:10519000000000003031323334353637383941427F
:1051A000434445460000000000F058F90544761CD1
:1051B000307800287FF4ECAD19B02846BDE8F08FB8
:1051C000620700D4062709F1070222F0070CFCE869
:1051D0000223E14603F000485FEA080C02D00FF218
:1051E000702C0DE05FEA045C02D50FF2682C07E03A
:1051F0005FEAC47C02D00FF2602C01E0AFF2700CC9
:105200004FF0FF3823F00043CDF850C065280CD094
:1052100006DC452809D046281DD047283DD13DE071
:10522000662818D067287ED138E00021112F01DBD5
:10523000112000E0781CCDE9000106A90EA8FFF7B7
:10524000E5FCDDE90F010E9A03910021009207F1C0
:10525000010A04914DE04FF000400097CDE90110A4
:1052600006A90EA8FFF7D2FCDDE90F0203920E9B00
:1052700011990022DDF80CA00093049211B9791C59
:1052800000EB010AB7EB0A0004D4C0F1FF3007F1CC
:10529000010A0490AAEB0700019044E0012F00DA14
:1052A00001270021112F01DD112000E03846CDE952
:1052B000000106A90EA8FFF7A9FCDDE90F010E9A6F
:1052C0000391002104910092BA4621070CD403995E
:1052D000514500DA8A46BAF1010F05DD009AAAF1BC
:1052E0000101515C302908D0B84202DA10F1040FF4
:1052F00006DA0121CDE9011015E0AAF10101E9E783
:10530000002805DC049901440491AAEB000102E0A5
:10531000411C514500DD8A460499401A401C019009
:105320004FF000400290200704D40198504501DB63
:10533000CDF8048000208DF84F0002980DF14F0742
:10534000B0F1004F25D02B200E9002984FF00208AC
:1053500000280CDA404202902D200E9007E00A212E
:105360000298FBF7A5FA3031029007F8011DB8F159
:105370000001A8F10108F2DC02980028EFD1791EA3
:105380000E980870307800F0200040F0450007F8D3
:10539000020D12A8C01B00F107081498007800B194
:1053A000012000EB0A01019801EBE07105984144EE
:1053B000401A401E0590E00306D45B462146179A2A
:1053C000059800F05DF805441498007818B15A4625
:1053D000179990476D1CE00324D55B462146179A28
:1053E000059800F04DF805441CE00498002807DB00
:1053F000DDE90301884203DD0098405C179901E074
:10540000179930205A469047049805F10105401C31
:1054100004900198401E019004D12E205A461799FD
:1054200090476D1CBAF10001AAF1010ADDDC05E02C
:1054300017F8010B5A46179990476D1CB8F10001F7
:10544000A8F10108F4DC5B462146179A0598ABE603
:105450002D0000002B000000200000002DE9F0418D
:10546000044600251E461746880404D405E0394644
:105470002020B0476D1C641EF9D52846BDE8F08198
:105480002DE9F041044600251E469046C80301D58B
:10549000302700E02027880404D505E0414638463F
:1054A000B0476D1C641EF9D52846BDE8F0810A6836
:1054B000531C0B60107070472DE9FE4F06460F46D7
:1054C0000025684601F0D2F9002442E056F8240095
:1054D00057F82410A0EB010ABAF1000F01DB514686
:1054E00001E0CAF100010846FBF7DEF883464FF001
:1054F0008F41FAF713FF80465DF824000021FBF787
:10550000C3F916D05DF824104046FAF707FF82462B
:105510004FF07E51FAF7CAFE814629F0004A0F4843
:10552000416A5046FBF7BAF912D20120A040054368
:105530000EE00A48C1694046FBF7A6F905D30748C3
:10554000016A4046FBF7AAF902D20120A0400543B8
:10555000641C032CBADB2846BDE8FE8FE4970008E4
:105560002DE9F04D8D4F21F0004A86B005460C46DE
:10557000BA452ADBAAEB070028430AD088488245AF
:1055800001DC1AD1CDB106B02846BDE8F04DFFF7D9
:1055900007BB844A844B2846FAF7A5FF07460E4608
:1055A000824A834B28462146FAF79DFF06B03A46C9
:1055B0003346BDE8F04DFAF7EFBE0120FFF720FBC0
:1055C00006B0BDE8F04DFFF7F0BA7A48824542DAFE
:1055D000BAF1795F0BDA2846FEF7B8FF042808BF56
:1055E000FFF7F0FA284606B02146BDE8F08D2A46BE
:1055F0000B461046FAF777FF834602466E480E4682
:105600000B4606217844FFF7F7F95A463346FAF776
:105610006AFF804669488A465A46334604217844E0
:10562000FFF7EAF95A463346FAF75DFF00223B4698
:10563000FAF7B2FE02460B4640465146FAF7C5FF5E
:105640002A462346FAF74FFF06B02A462346BDE80E
:10565000F04DFAF7A1BE284624F0004100223D4655
:105660003B46FAF73DFF4FF0FF32FBF77BFA064669
:10567000024653480F460B4606217844FFF7BCF913
:1056800032463B46FAF72FFFCDE900014D4832463E
:105690003B4604217844FFF7AFF932463B46FAF720
:1056A00022FF00222B46FAF777FE8346029130460E
:1056B000394603F061FA804643480D46504517DCF1
:1056C000DDE900015A46029BFAF77FFF42462B466E
:1056D000FAF709FF42462B46FAF75EFE0122FBF776
:1056E00041FA304A304BFAF7F8FE304A304B4CE082
:1056F0004FF0000A52460B464046FAF74DFECDE900
:10570000031052462B4610461946FAF7ECFE324675
:105710003B46FAF7E5FEDDE90332FAF756FF0646A7
:105720000F46DDE900015A46029BFAF74EFF834619
:105730000091012230463946FBF714FA194A1A4BF8
:10574000FAF7CEFE06460F46012240462946FBF7F1
:1057500009FA5A46009BFAF7C6FE32463B46FAF76C
:10576000BCFE06460F46012250462946FBF7FAF9D1
:105770000E4DDFF858802A464346FAF7B1FE32460E
:105780003B46FAF7ADFE2A464346FAF7A9FE002C3F
:10579000D8BF81F0004106B0BDE8F08D0000F03FB9
:1057A0000000F07F075C143326A6913C182D44546A
:1057B000FB21F93F0000E03F084200001E420000CC
:1057C00092410000A84100003333EF3FFB21E93F45
:1057D0002DE9F84F04460D4621F000400091734931
:1057E000814211DC7249884201DC06D12CB120468D
:1057F0002946BDE8F84FFFF7D3B96E48002DCCBF5E
:105800006D496E49BDE8F88F6D49814211DD6D49E2
:105810008142D8BF4FF0FF366DDD20462946FEF7A6
:1058200095FE042808BFFFF7CDF920462946BDE8BC
:10583000F88F6549654F25F00045814233DD6449A5
:10584000814219DD002632464FF08043204629462A
:10585000FAF7A2FD80468A46012220462946FBF738
:1058600081F900223B46FAF738FE42465346FAF7E2
:10587000ACFE04460D463EE001260022BA463B46F9
:1058800020462946FAF788FD80460F4600225346F7
:1058900020462946FAF721FE42463B46FAF795FE96
:1058A00004460D4627E04B4981421BDDDFF828A165
:1058B00002260022534620462946FAF714FE00220B
:1058C0003B46FAF769FD80460F46002253462046C4
:1058D0002946FAF702FE42463B46FAF776FE0446B0
:1058E0000D4608E0032622462B4600203B49FAF7E6
:1058F0006CFE04460D4622462B4610461946FAF722
:10590000F2FD8B46824602460B46FAF7ECFD07464F
:105910000246334888460B4606217844FFF76CF868
:1059200052465B46FAF7DFFD82462E488B463A46E2
:10593000434605217844FFF75FF83A464346FAF7B5
:10594000D2FD02460B46002E504659460CDAFAF7B5
:1059500023FD22462B46FAF7C6FD01B022462B4610
:10596000BDE8F04FFAF7BCBDFAF716FD22462B460C
:10597000FAF7B9FD1C4A7A4402EBC603D3E90023C7
:10598000FAF7ABFD22462B46FAF7A7FD174A7A44F1
:1059900002EBC603D3E90023FAF7A2FD009A002A1E
:1059A000B8BF81F00041BDE8F88F0000000010444E
:1059B0000000F07F182D4454FB21F93FFB21F9BF73
:1059C0000000DC3F0000203E0000F33F0000F03FFD
:1059D0000000E63F008003400000F83F0000F0BFF9
:1059E00032400000F03F00008E3F0000563F0000B4
:1059F0002DE9F04D9446CCF1000423F000464CEA2A
:105A00000404524F46EAD4749A46884621F0004274
:105A1000BC4206D8454240EA050442EAD474BC427E
:105A200004D9BDE8F04D6246FFF7BDB8AAF1405574
:105A3000A5F17F6555EA0C040BD0022404EAAA7490
:105A4000434DDFF810E144EAD87452EA000B04D069
:105A50000CE0BDE8F04DFFF7BBBE002C14BF012CDD
:105A6000BDE8F08D022C30D0032C32D056EA0C0B5E
:105A70000AD0BE4220D1BA4209D126F0804622F097
:105A800080423346114617E000291ADB25E0DFF893
:105A9000C8B0FB44002C04BFDBE90001BDE8F08D79
:105AA000012C02BFDBE9000181F00041BDE8F08D6F
:105AB000022C0AD0032C0CD0BA4212D1B8F1000F3C
:105AC0000BDA23482549BDE8F08D28462449BDE876
:105AD000F08D28467146BDE8F08D1D482149BDE88E
